:04000000020059326F
:01000B0032C2
:0100130032BA
:01001B0032B2
:0100230032AA
:01002B0032A2
:01003300329A
:01003B003292
:03004300023F0079
:01004B003282
:03005300023F0069
:0300B200750D01C8
:0300C700020056DE
:0300560002026C37
:2000CA00E582FF24F0500475823F22EF24F650088F0674572EF5822274302FF58222E58295
:2000EA0075F004A4FFAEF024D0FCEE343EFDE50AC4540FF582C007C006C005C0041200CA80
:20010A00AB82D004D005D006D0078C828D83EBF074022FFFE43EFEEF24D0FFEE343EFE74E1
:20012A000F550AF582C007C0061200CAAD82D006D0078F828E83EDF022750B00903ED074D8
:20014A0066F075480B754900754A407544F8754500754601754700758251120907850B0AD3
:20016A007582001200E875480B754900754A407544F97545007546017547007582511209B8
:20018A0007850B0A7582011200E875480B754900754A407544FA75450075460175470075E3
:2001AA008251120907850B0A7582021200E875480B754900754A407544FB75450075460104
:2001CA00754700758251120907850B0A7582031200E875480B754900754A407544FC75456D
:2001EA0000754601754700758251120907850B0A7582041200E875480B754900754A40758A
:20020A0044FD754500754601754700758251120907850B0A7582051200E875480B754900E1
:20022A00754A407544FE754500754601754700758251120907850B0A7582061200E8754814
:20024A000B754900754A407544FF754500754601754700758251120907850B0A75820702DE
:20026A0000E890E60BE4F0C200C20190E60B7403F090E680E0FF740A4FF09005DC120E9E09
:20028A0090E680E0FF74F75FF090E600E0FF74E75F4410F090E100E4F5F0120DB91201430A
:2002AA00D2E890E668E0FF74084FF090E65CE0FF74014FF0E0FF74104FF0E0FF74204FF049
:2002CA00D2AF3000FD12096CC20080F675820022AF8290E6BBE0FD7E0090E6BAE07B004204
:2002EA0006EB420590E6BFE0FB7C0090E6BEE07A004204EA42038F017A00C007C006C005D1
:20030A00C004C003C004C003C006C005C001C0027414C0E07416C0E07480C0E0120F19E5B2
:20032A008124F7F581D003D004D005D006D00790E678E0FA30E4047A5180027A50BFB1020F
:20034A00800302044C90E6B8E0FFBF40028077BFC002800302042FEC4B7003020433C37466
:20036A00409CE49B500679407F0080048C018B0790E6A0E0FF20E1F8894675470075484071
:20038A007549E7754A008E448D458A82C006C005C004C003C002C001120907D001D002D015
:2003AA0003D004D005D00690E68AE4F00000000090E68BE9F07F00ECC399FCEB9FFBE92EA4
:2003CA00FEEF3DFD8091EC4B605F90E68BE4F090E6A0E0FF20E1F890E68BE0FF8F39753ACB
:2003EA0000753B40753CE7753D008E378D388A82C007C006C005C004C003C002120871E518
:20040A0082D002D003D004D005D006D0077003F582228F017F00E92EFEEF3DFDECC399FCB8
:20042A00EB9FFB80A1758200227441C0E07416C0E07480C0E0120F191581158115817582ED
:20044A00012275820022AD67AE68AF698D828E838FF0E4120D8775820122AE0C7F00C006D2
:20046A00C0077449C0E07416C0E07480C0E0120F19E58124FBF58175820122850D8222AF5C
:20048A00828F057E00C007C005C006746AC0E07416C0E07480C0E0120F19E58124FBF581FB
:2004AA00D0078F0D75820122C0E0C082C083C007C0D075D000D200AF9174EF5FF59190E614
:2004CA005D7401F0D0D0D007D083D082D0E032C022C0E0C0F0C082C083C007C006C005C089
:2004EA0004C003C002C001C000C0D075D000758200120C6DAF9174EF5FF59190E65D7410B2
:20050A00F0D0D0D000D001D002D003D004D005D006D007D083D082D0F0D0E0D02232C0228A
:20052A00C0E0C0F0C082C083C007C006C005C004C003C002C001C000C0D075D000758201F3
:20054A00120C6DAF9174EF5FF59190E65D7420F0D0D0D000D001D002D003D004D005D006C2
:0D056A00D007D083D082D0F0D0E0D0223274
:2016140048616E646C652056656E646F7220436F6D6D616E6420253032782C2061646472F7
:201634002025642C206C656E2025640A00416C6C204F4B0A00486F73742077616E747320C7
:20165400746F2073657420696E746572666163653A2025640A00686F73742077616E74735E
:0D16740020636F6E6669673A2025640A00E6
:203E000012010002FFFFFF40192A41540200010203010A060002FFFFFF40010009023C00D8
:203E200001010080320904000006FFFFFF000705010200020007058102000200070502020C
:203E400000020007050402000200070586020002000705880200020009023C000101008055
:203E6000320904000006FFFFFF00070501024000000705810240000007050202400000078B
:203E80000504024000000705860240000007058802400000040309040E034E0075006D00D8
:203EA000610074006F0028034F0070007300690073002000280045004500500052004F00C2
:203EC0004D0020004D006F0064006500290022033000310032003300340035003600370006
:123EE0003800390061006200630064006500660000000A
:20057700AF82E5282523F52DE5293524F52E752F02903C00E4F0EF2FFF903C00E0E06004DF
:200597007582002290E678E0FB74804BF0E0FB30E20C90000AC007120E9ED00780DB90E673
:2005B70079EFF090E678E0FB20E007903C00E0E060F1903C00E0E060047582002290E67828
:2005D700E0FB20E2B490E678E0FB20E13B90E678E0FB74404BF090E678E0FB30E607903C04
:2005F70000E0E060F1903C00E0E0600475820022E52F14FB8B2F7003F5822290000AC00780
:20061700120E9ED0070205907A007B00C3EA952DEB952E40030206C1C3EA9523EB95245020
:2006370016EA2525F8EB3526F9AC27888289838CF0121513FC801DEAC39523F8EB9524F9F0
:20065700E8252AF8E9352BF9AE2C888289838EF0121513FC90E679ECF00ABA00010B90E65D
:2006770078E0FE20E007903C00E0E060F1903C00E0E060047582002290E678E0FE30E2033F
:2006970002059090E678E0FE30E10302062390E678E0FF74404FF090E678E0FF30E6079067
:2006B7003C00E0E060F17582002290E678E0FF74404FF090E678E0FF30E607903C00E0E087
:2006D70060F1903C00E0E060047582002275820122AF82903C00E4F0EF2FFF4307017401E1
:2006F700B53008E4B5310474018001E4FE903C00E0E06004758200227C007D0090E678E080
:20071700FB74804BF0E0FB30E21090000AC007C006120E9ED006D00780D390E679EFF09058
:20073700E678E0FB20E007903C00E0E060F1903C00E0E060047582002290E678E0FB20E2B1
:20075700AC90E678E0FB20E11C90E678E0FB74404BF090E678E0FB30E607903C00E0E06066
:20077700F175820022EE600990E678E0FB74204BF090E679E0E4F535F53674012535F8E4B6
:200797003536F9C3E89530E99531506A90E678E0F920E007903C00E0E060F1903C00E0E0CE
:2007B70060047582002290E678E0F930E20302070474022535F8E43536F9E8B5300DE9B534
:2007D700310990E678E0F9742049F0A835A9360535E4B535020536AC35AD36E82532F8E94F
:2007F7003533F9AB3490E679E0FA888289838BF0120D8702079190E678E0FB20E007903C6C
:2008170000E0E060F1903C00E0E060047582002290E678E0FB30E20302070490E678E0FFEF
:2008370074404FF0EC2532FCED3533FDAF3490E679E0FE8C828D838FF0120D8790E678E05C
:20085700FF30E607903C00E0E060F1903C00E0E06004758200227582012285823EE4F54205
:20087700F543AB37AC38C3E5429539E543953A40030209037A0090E678E0FF30E4067A0187
:200897008C078F3F8A070AEF243FF98B06A7068A070AEF243FF9AE42AF430542E4B54202D0
:2008B7000543EE253BFEEF353CFFAD3D8E828F838DF0121513F78A2375240075253F7526BA
:2008D70000752740E4F528F529F52AF52BF52C853E82C004C003120577E582D003D00470CE
:2008F70003F582220BBB00010C02087D75820122AF827E0090E678E0FD30E4067E01AD45CC
:200917008D4B8E050EED244BF9AC44A7048E2375240075254B752600752740E4F528F52992
:20093700F52AF52BF52C8F82C007120577E582D0077003F582228546308547318548328514
:150957004933854A348F821206E8E5827003F58222758201226E
:06008800E478FFF6D8FD4C
:1200B500750F0075100075115875123E75131C75143E22
:20096C0090E6B9E0FF24F45003020A72EF240A83F582EF241083F583E4739EB472CA727276
:20098C00E072F0071F5309090A090A0A090A090A0A0A120AECE5826003020A8890E6A0E0C1
:2009AC00FF74014FF0020A88120B79E5826003020A8890E6A0E0FF74014FF0020A88120B96
:2009CC00E8E5826003020A8890E6A0E0FF74014FF0020A881202D6E5826003020A88120C22
:2009EC0098020A88120485AF8290E740EFF090E68AE4F090E68B04F0020A8890E6BAE0F5FB
:200A0C0082120489E582707490E6A0E0FF74014FF0806990E6BCE0FF75670E756800756916
:200A2C00408F82120450E582700B90E6A0E0FF74014FF0804790E740E50EF090E68AE4F033
:200A4C0090E68B04F0803590E6BCE0FF90E6BAE0F50C8F82120464E582702190E6A0E0FF46
:200A6C0074014FF0801690E6B9E0F5821202DAE582700990E6A0E0FF74014FF090E6A0E02D
:200A8C00FF74804FF022AF828F0653067FEE24F75003020AE8EE240A83F582EE240D83F55B
:200AAC0083E473C1C5D8E8DCE8E0E8E40A0A0A0A0A0A0A0A0A90E6A022EF30E7067EA27F5D
:200ACC00E680047EA17FE68E828F832290E6A32290E6A42290E6A52290E6A6229000002234
:200AEC0090E6B8E0FFBF8002801FBF81028005BF8273803490E740E4F090E741F090E68A9B
:200B0C00F090E68B7402F08060E51025E0FFE50F420790E740EFF090E741E4F090E68AF04A
:200B2C0090E68B7402F0804190E6BCE0F582120A92AE82AF838E048F05EE4F7003F5822279
:200B4C008C828D83E0FC30E0047F0180027F0090E740EFF090E741E4F090E68AF090E68BE7
:200B6C007402F08004758200227582012290E6B8E0FF6005BF0258801B90E6BAE0FFBF0157
:200B8C0005751000805290E6BAE0FFBF060280487582002290E6BAE0703190E6BCE0F582FC
:200BAC00120A92AE82AF83E0FD5305FE8E828F83EDF090E6BCE0FF30E70343071053071FE9
:200BCC0090E683EFF074204FF0800D7582002290E6B9E0F5820202DA7582012290E6B8E02C
:200BEC00FF6005BF026E802690E6BAE0FFBF0203020C6990E6BAE0FFBF0105751001805D2F
:200C0C0090E6BAE0FFBF060280537582002290E6BAE0703C90E6BCE0F582120A92AE82AF34
:200C2C0083EE4F7003F582228E828F83E0FD4305018E828F83EDF090E6BCE0FF30E7034327
:200C4C00071053071F90E683EFF074204FF0800D7582002290E6B9E0F5820202DA7582014B
:200C6C0022D310AF01C3C0D0E582FF600E75111C75123E75135875143E800C75115875128D
:200C8C003E75131C75143ED0D092AF2290E6B57401F090E6BBE0FFBF01028019BF0202805E
:200CAC0029BF03028033BF0603020D59BF0703020D6E020D7D7E007F3E8F0690E6B3EEF0AF
:200CCC007E007F3E90E6B4EEF022AF1290E6B3EFF0AE1190E6B4EEF0227D947E3E7F809095
:200CEC00E6BAE0F5677B008B020BEAB5670280428D008E018F028D828E838FF01215132881
:200D0C00F8E439F9880589068A0774012DF9E43EFA8F0489828A838CF0121513F9B903023D
:200D2C0080067D007E007F00ED4E6006C3E5679B50B5ED4E600D8E0790E6B3EFF090E6B4E8
:200D4C00EDF02290E6A0E0FF74014FF0227E127F3E8F0690E6B3EEF07E127F3E90E6B4EE6F
:1B0D6C00F022AF1490E6B3EFF0AE1390E6B4EEF02290E6A0E0FF74014FF022D9
:200066007900E94400601B7A0090168C780175923CE493F2A308B800020592D9F4DAF2757E
:0200860092FFE7
:1B0D870020F71130F6138883A88220F509F6A8837583002280FEF280F5F0226B
:203F00000204B200021612000215A10002160B000204D9000205280002159E00020DAD0065
:203F2000020DAF00020DB000020DB100020DB4000216110002161300020DA200020DA400C9
:203F40000215A300020DAD0002159D0002159F000215A0000215A2000215A40002160A0034
:203F60000214FA00020DAD00020DAD00020DAD00020DAE00020DB200020DB500020DB700F5
:203F8000020DB300020DB600020DB800020EF400020DA500020DA700020DA900020DAB00F3
:183FA000020DA600020DA800020DAA00020DAC00020DA300021610004F
:010DA200321E
:010DA300321D
:010DA400321C
:010DA500321B
:010DA600321A
:20008E007800E84400600A790075923CE4F309D8FC7801E84400600C7901903C00E4F0A306
:0400AE00D8FCD9FAA7
:010DA7003219
:010DA8003218
:010DA9003217
:010DAA003216
:010DAB003215
:010DAC003214
:010DAD003213
:010DAE003212
:010DAF003211
:010DB0003210
:010DB100320F
:010DB200320E
:010DB300320D
:010DB400320C
:010DB500320B
:010DB600320A
:010DB7003209
:010DB8003208
:200DB900D310AF01C3C0D085821585831685F017F51890E600E05418C423541FFB70047B5B
:200DD90001801690E600E05418C423541FFABA01047A0280027A048A03D2CDD2CC8B6775E1
:200DF9006800756900756A009071B075F00BE4C00312152F85156785166885176985186A87
:200E19001215A5A882A983AAF0FFD00308B8000909B900050ABA00010FEFC313EA13FAE922
:200E390013F9E813F874FFC398F874FF99FF8FCB7900EB60027401FFEF28F5CAD2CAC29F62
:200E5900D29EC29DD29C438780D299D0D092AF223098FD859982C29822AF8210990280FB4C
:200E79008F9922AF82BF0A0A75820DC007120E72D0078F82C007120E72D007BF0D067582CD
:050E99000A020E7222A6
:200E9E00AE82AF8390E600E05418C423541FFD70057CB1FD801C90E600E05418C423541F62
:200EBE00FBBB01067A617B0180047AC27B028A048B058C678D68156774FFB567021568E54E
:160EDE0067456870F1EE24FFFAEF34FFFB8A068B07EA4B70DD229B
:010EF40032CB
:200EF500C01A85811A120E7CD01A2285825C85835D85F05EE4F559F55AF55B85195F900E34
:200F1500F5020FF0C01A85811AE51A24FBFF8F5FE4F559F55AF55BE51A24FBF8865C08866A
:0D0F35005D08865E900EF5120FF0D01A22B6
:200F4200AF82C04FC050C051120F4F8007C04DC04E8F82221581158115810557E4B55702D9
:200F6200055822AF8274302FFF24C6500A74072FFF3002034307208F82020F42E582FFC4D3
:200F8200540FF582C007120F65D007740F5FF582020F6585826785526885536985546A85CC
:200FA200556BAA56756C20EA2AFAE56B235401FF8A064EFAE5682568F568E56933F569E5C6
:200FC2006A33F56AE56B33F56BC3EA95674008EAC39567FA436801E56C14FF8F6C70C885D4
:200FE2006852856953856A54856B558A562285824D85834E85594F855A50855B51E4F55703
:20100200F558AD5CAE5DAF5E8D828E838FF0121513FC74012DF55CE43EF55D8F5EECFF70DC
:20102200030214F3BF250280030214EBC203C204C205C206C207C208C209C20A75600075AA
:2010420061007CFFAA5CAB5DAE5E8A828B838EF0121513FFA3AA82AB838A5C8B5D8E5EBF51
:2010620025078F82120F4280998F6374D025635026E56324C64020BCFF12E56175F00AA4C9
:20108200FD2F24D0F56170C2D20480BEEC75F00AA42F24D0FC80B3BF2E07BCFFAD7C0080E9
:2010A200A98F05BD6100400CED248540075307DFD2028002C202BF2002806DBF2B028063BA
:2010C200BF2D028059BF42028063BF43028068BF4403021295BF46030212ABBF48030210E3
:2010E2004CBF4903021295BF4A0302104CBF4C028040BF4F0302129CBF500302122ABF5394
:2011020002805CBF540302104CBF55030212A1BF58030212A6BF5A0302104C0212AFD203C9
:2011220002104CD20502104CD20602104CD20802104CD20902104C30080CE55F14FE8E5FEC
:201142008E0187078011E55F24FEFE8E5F8E018705098706198D078F82120F420212B8E50B
:201162005F24FDFE8E5F8E01870309870509870619198B528D538E548B828D838EF0C0048E
:201182001214FBAD82AE83D004BCFF028D0420032AC3ED95615024E561C39DF561AE618EAA
:2011A200031EEB6014758220C006C005C004120F42D004D005D00680E68E618C0685528225
:2011C2008553838554F0121513FCFF602F8E041EC374808CF063F08095F050208F82C006A3
:2011E200C005120F42D005D006AA52AB53AC540ABA00010B8A528B538C5480C1200303024D
:2012020012B8C3ED956140030212B8E561C39DF561AE618E041EEC70030212B6758220C092
:2012220006120F42D00680EBE55F24FDFC8C5F8C01870209870309870419198A528B538C01
:2012420054AC54BC800040047F438014BC600040047F50800BBC400040047F4980027F5847
:201262008F82C007120F4275823A120F42758230120F42758278120F42D007BF4902800BD5
:20128200BF50028006855382120F7E855282120F7E8023D20775600A801C756008801775E4
:2012A200600A8012756010800DD20A80098F82120F4280028E61300A5CE55F24FCFE8E5F8F
:2012C2008E0187020987030987040987061919198A528B538C548E55755281755316755480
:2012E2008085526485536585546674012564FAE43565FCAE668A528C538E5485648285653D
:20130200838566F0121513FEFF70030210048F82120F4280CCE560700302100475627230A6
:20132200082DE55F14FC8C5F8C01E7FA3395E0FBFCFE8A528B538C548E55200766AA527BAB
:20134200007C007E008A528B538C548E558054300921E55F24FCFE8E5F8E018702098703EC
:201362000987040987061919198A528B538C548E558030E55F24FEFE8E5F8E0187040987CE
:201382000619EE3395E0FBFA8C528E538B548A55200710AA52AB537C007E008A528B538CB3
:2013A200548E55300722E55530E71BC3E49552FAE49553FBE49554FCE49555FE8A528B5391
:2013C2008C548E558002C207D20BA9627E00755600856082C006C001120F95D001D0062061
:2013E2000B0BE556C4FCE7FB4CF7198002A7560EB20BE55245534554455570D289628E0590
:20140200E5617003756101200424200321ED04FEAC61C3EE9C5015758220C006C005C0049A
:20142200120F42D004D005D0061C80E68C6130070E75822DC005120F42D00515618023EDED
:20144200602030050E75822BC005120F42D0051561800F30060C758220C005120F42D0054D
:201462001561200322AE618E041EC3ED9C502B3004047C3080027C208C82C006C005120F6D
:2014820042D005D00680E0C3ED95615008E561C39DF561800775610080028E61A9628D0697
:2014A2008E051EED6026B20B200B0A09E7C4540FFD8D5680078705740F5DF556855682C0C2
:2014C20006C001120F65D001D00680D4200303021004AE618E051EED700302100475822039
:1814E200C006120F42D00680EB8F82120F42021004855782855883221E
:0B1681003C4E4F20464C4F41543E00B1
:0114FA0032BF
:1814FB00AA82AB831215136003A380F8C3E5829AF582E5839BF58322EF
:0D00590075817212160CE5826003020056DC
:1C15130020F71430F6148883A88220F507E6A88375830022E280F7E49322E022E7
:20152F00AAF0FBE5828567F0A4FCADF0E5838567F0A42DFDE435F0FEE5828568F0A42DFD5C
:20154F00E5F03EFEE433FFEA8567F0A42EFEE5F03FFFE5838568F0A42EFEE5F03FFFE5821D
:20156F008569F0A42EFEE5F03FFFEB8567F0A42FFFEA8568F0A42FFFE5838569F0A42FFF51
:0E158F00E582856AF0A42F8EF08D838C822277
:01159D00321B
:01159E00321A
:01159F003219
:0115A0003218
:0115A1003217
:0115A2003216
:0115A3003215
:0115A4003214
:2015A500FB7A20E4FCFDFEFFE5822582F582E58333F583E5F033F5F0EB33FB4017DAE9807F
:2015C50042E5822582F582E58333F583E5F033F5F0EB33FBEC33FCED33FDEE33FEEF33FFAE
:2015E500EC9567ED9568EE9569EF956A4013EC9567FCED9568FDEE9569FEEF956AFF438280
:0516050001DABEEB223A
:01160A0032AD
:01160B0032AC
:04160C0075820022C1
:0116100032A7
:0116110032A6
:0116120032A5
:0116130032A4
:00000001FF
