:06000000020DC602006BB8
:03000B0002006B85
:0300130002006B7D
:03001B0002006B75
:0300230002006B6D
:03002B0002006B65
:0300330002006B5D
:03003B0002006B55
:0300430002006B4D
:03004B0002006B45
:0300530002006B3D
:03005B0002006B35
:0300630002006B2D
:01006B003262
:1000800002006B0002006B0002006B0002006B00BC
:1000900002006B0002006B0002006B0002006B00AC
:1000A00002006B0002006B0002006B0002006B009C
:0800B00002006B0002006B006E
:1001000002006B0002006B0002006B0002006B003B
:1001100002006B0002006B0002006B0002006B002B
:1001200002006B0002006B0002006B0002006B001B
:1001300002006B0002006B0002006B0002006B000B
:1001400002006B0002006B0002006B0002006B00FB
:1001500002006B0002006B0002006B0002006B00EB
:1001600002006B0002006B0002006B0002006B00DB
:1001700002006B0002006B0002006B0002006B00CB
:030DCC00020DD243
:030DE500020DCF2D
:030DCF0002048299
:10018000C200E4F508F509F50AD201750B00750CFB
:100190000012066012065D75CB6375CAC0758E00CD
:1001A00075C804D2AFD2B0D2B190E6047480F0002A
:1001B00090E60B7403F00090E61074A0F00090E657
:1001C0001174A0F00090E618E4F00090E6047402C8
:1001D000F00090E61274A2F00090E619E4F00090AE
:1001E000E6047404F00090E61374A0F00090E61AA0
:1001F000E4F00090E6047406F00090E61474E2F077
:100200000090E61BE4F00090E6047408F00090E62D
:100210001574E0F00090E604E4F00090E60BE4F0E2
:10022000000090E6917480F00090E6957480F000F4
:1002300090E6917480F00090E6957480F022AF8291
:10024000850C827583E0EFF0050C0509E4B5090221
:10025000050A222000012212065C90E6A2E0FF308F
:10026000E1030202EBE509450A60687EC07FE78F83
:100270009D7EC07FE77F008E9E90E67C7431F07497
:1002800060F0C3743E9509E4950A50107F3EE5097D
:1002900024C2F509E50A34FFF50A8007AF09E4F541
:1002A00009F50A8F067C007DE08D9A850B9B8F05F2
:1002B0001FED601090E67BE090E67CF07C007DE036
:1002C0008D9A80EA859B0B0090E68F74022EF0D207
:1002D000CF801830CF1590E7C07431F090E7C1742B
:1002E00060F00090E68F7402F0C2CFE5AA30E00122
:1002F00022C3E50994C1E50A940040012290E690EA
:10030000E0FE7F0090E691E0FD7C00EF4DF50DEE04
:100310004CF50E7C007DF08D9A7C007DF08C9B7CF2
:10032000007D00C3EC950DED950E40030203FBE547
:100330000870030203BAE50DC39CFAE50E9DFBA805
:10034000087900C3E89AE99B5004880289038A016E
:10035000E508C399F508EA2CFCEB3DFD30012C8A39
:10036000008B018806890718B8FF0119EE4F60B3AA
:1003700090E67BE0F582C005C004C001C000120613
:10038000A4D000D001D004D00580D88A068B078E77
:10039000028F031EBEFF011FEA4B608790E67BE0E1
:1003A000F582C007C006C005C0041206E112023E75
:1003B000D004D005D006D00780D590E67BE0FFA220
:1003C000E69202B39201EF30E707743F5FF50880D1
:1003D0002230010F8F82C005C00412067FD004D0E6
:1003E0000580108F82C005C00412069612023ED00E
:1003F00004D0050CBC00010D0203230090E69174AB
:1004000080F02290E6B8E0FF20E70C90E6B9E070BB
:1004100002D2007582012290E6B9E0FFBF902B90D6
:10042000E6BCE025E0547FFF2400F582E43418F5B3
:1004300083E0FE90E740F0EF042400F582E43418F6
:10044000F583E0FF90E741F0800C90E7407436F0D0
:1004500090E7417483F090E68AE4F090E6BEE0FF16
:10046000BF0200500790E6BEE0FF80027F0290E6E8
:100470008BEFF07582012230040312091D12025322
:1004800080F5C2AF1201801204DF120CEE12088454
:08049000D2AF120774020477D9
:10E100001201100100000040C016AD06040001021B
:10E1100003010A061001FFFFFF4001000902200071
:10E12000010100804B0904000002FFFFFF02070508
:10E1300081024000000705020240000012011001A8
:10E1400000000040C016AD060400010203010A06EB
:10E150001001FFFFFF4001000902200001010080C3
:10E160004B0904000002FFFFFF0207058102400087
:10E1700000070502024000000482E188E196E1AE5A
:01E18000E1BD
:10E182000603000009040E03690078006F002E00E8
:10E192006400650018035500530042002D004A0038
:10E1A2005400410047002D00490046001203680058
:0EE1B20077005F006E00650078007900730052
:10049800AF82E50F54FEFEB50F02802A8F048C054B
:1004A800E4FC6210ED6211EE2400F582E43418F5E4
:1004B80083E0FE7D006210ED6211E51033C5113353
:1004C800C51192E0F510AE0F050FEE2400F582E499
:1004D8003418F583EFF022750F007510AA7511AA6C
:1004E8007582001204987582001204987F00EF2428
:1004F80008F582E434E1F583E0F582C00712049838
:10050800D0070FC3EF6480948640E37F00EF242375
:10051800F582E434E1F583E0F582C007120498D04F
:10052800070FC3EF6480948240E375821C1204981D
:100538007582001204987F00EF2402F582E434E10A
:10054800F583E0F582C007120498D0070FC3EF6463
:1005580080948240E37486250FFFF582C007120459
:100568009890E188E0F582120498D00790E188E03D
:100578002FFFF582C00712049890E196E0F58212E9
:100588000498D00790E196E02FF58212049890E144
:10059800AEE0F5821204987F0090E188E0FEC3EF98
:1005A80064808EF063F08095F05017EF2488F58210
:1005B800E434E1F583E0F582C007120498D0070F10
:1005C80080D77F0090E196E0FEC3EF64808EF063F1
:1005D800F08095F05017EF2496F582E434E1F58326
:1005E800E0F582C007120498D0070F80D77F0090EB
:1005F800E1AEE0FEC3EF64808EF063F08095F050CA
:1006080017EF24AEF582E434E1F583E0F582C00704
:10061800120498D0070F80D77F00EF240EF582E4EC
:1006280034E1F583E0F582C007120498D0070FC3C0
:10063800EF6480948440E37482250F40087582003B
:1006480012049880F2AE1090187EEEF0AF11901858
:100658007FEFF0222222222290E6007412F090E628
:100668000174E0F0AFB574FE5F44BCF5B5D2B5D205
:10067800B79001F4020DB5E582FF13920392B4EF2F
:10068800A2E1920392B3EFA2E4920392B22212067D
:100698007FA2B0E433FF74024FF58222E582139201
:1006A800B2D2B413C2B492B2D2B413C2B492B2D218
:1006B800B413C2B492B2D2B413C2B492B2D2B413C5
:1006C800C2B492B2D2B413C2B492B2D2B413C2B406
:1006D80092B2D2B400C2B42222E582A2B01392B27E
:1006E800D2B4C2B4A2B01392B2D2B4C2B4A2B013FC
:1006F80092B2D2B4C2B4A2B01392B2D2B4C2B4A26B
:10070800B01392B2D2B4C2B4A2B01392B2D2B4C2ED
:10071800B4A2B01392B2D2B4C2B4A2B01392B2D2FD
:10072800B400C2B4F58222227880E84400600C79D3
:1007380001901800E4F0A3D8FCD9FAD083D082F64F
:10074800D8FDC082C0837582002290E6A0E04401F3
:10075800F022AF8274805FC423541FFE740F5F9031
:10076800E6834EF090E683E04420F02290E680E0B5
:10077800440AF09000FA120DB590E65D74FFF0900F
:10078800E65F74FFF0AF9174EF5FF59190E680E05B
:0407980054F7F02200
:060DDF00E478FFF6D8FDE8
:060DC60075120075130018
:10079C0090E680E0FF30E7197514007515E17516C9
:1007AC00127517E175181C7519E1751A58751BE14E
:1007BC002275143C7515E175164E7517E1751858B0
:1007CC007519E1751A1C751BE122C0E0C007C0D079
:1007DC0075D000AF9174EF5FF59175A100D204D084
:1007EC00D0D007D0E032C021C0E0C0F0C082C083BE
:1007FC00C007C006C005C004C003C002C001C000D1
:10080C00C0D075D000AF9174EF5FF59175A1001257
:10081C00079CD0D0D000D001D002D003D004D0059A
:10082C00D006D007D083D082D0F0D0E0D02132C017
:10083C0021C0E0C0F0C082C083C007C006C005C0A4
:10084C0004C003C002C001C000C0D075D000AF917D
:10085C0074EF5FF59175A10012079CD0D0D000D039
:10086C0001D002D003D004D005D006D007D083D05D
:10087C0082D0F0D0E0D0213212079C751CD6751DA9
:10088C0007758200120C47751CF2751D07758210D6
:10089C00120C47751C3B751D08758214120C479081
:1008AC00E65C7431F022AF828F06747F5EFF24F712
:1008BC00500475820022BF01047582012253070186
:1008CC00E4BF000104F58222AF82BF010C90E6A1C7
:1008DC00E0FE7D008E828D8322BF810C90E6A2E02B
:1008EC00FE7D008E828D83228F06747F5EFF700CDE
:1008FC0090E6A0E0FE7D008E828D832290E6A3E040
:10090C00FE7D00EFC3137C002EFEEC3D8E82F58342
:10091C0022C20490E6B8E0FF5307608F06BE0002C7
:10092C008028BF2002800DBF4002800EBF60028075
:10093C0003020BDC120752020BDC120403E582608B
:10094C0003020BDC120752020BDC90E6B8E0FF53FB
:10095C000780BF80028003020AE090E6B9E0FFBF87
:10096C000003020A57BF06028035BF08028008BF89
:10097C000A028017020ADA90E740E512F090E68A44
:10098C00E4F090E68B7401F0020BDC90E740E51389
:10099C00F090E68AE4F090E68B7401F0020BDC90A8
:1009AC00E6BBE0FFBF01028017BF02028038BF0325
:1009BC00028059BF0602801BBF0702803C020A510D
:1009CC00AE14AF1590E6B3EFF07F0090E6B4EEF006
:1009DC00020BDCAE16AF1790E6B3EFF07F0090E69B
:1009EC00B4EEF0020BDCAE18AF1990E6B3EFF07F6B
:1009FC000090E6B4EEF0020BDCAE1AAF1B90E6B33F
:100A0C00EFF07F0090E6B4EEF0020BDC90E6BAE07B
:100A1C00FF90E178E0FEC3EF9E4006120752020BF6
:100A2C00DC90E6BAE075F002A42479F58274E13525
:100A3C00F0F583E0FEA3E090E6B3F07F0090E6B41F
:100A4C00EEF0020BDC120752020BDC90E6B8E0FF72
:100A5C0053071F8F06BE0002800ABE0102801BBF17
:100A6C000266802C90E740E4F090E741F090E68A33
:100A7C00F090E68B7402F0020BDC90E740E4F0900F
:100A8C00E741F090E68AF090E68B7402F0020BDC02
:100A9C0090E6BCE0F5821208B2E582602590E6BCD7
:100AAC00E0F5821208D4E0FF53070190E740EFF025
:100ABC0090E741E4F090E68AF090E68B7402F00245
:100ACC000BDC120752020BDC120752020BDC120772
:100ADC0052020BDC90E6B9E0FF24F45003020BD970
:100AEC00EF240A83F582EF241083F583E473D92471
:100AFC00A182D9D9D9D9D912D91B0B0B0B0B0B0B42
:100B0C000B0B0B0B0B0B90E6BAE0F512020BDC9007
:100B1C00E6BAE0F513020BDC90E6B8E0FF53071FD2
:100B2C008F06BE00028005BF0247800A90E6BAE03D
:100B3C00120752020BDC90E6BAE0703090E6BCE093
:100B4C00F5821208B2E582602390E6BCE0F58212D1
:100B5C0008D4AE82AF83E0FD5305FE8E828F83ED09
:100B6C00F090E6BCE0F58212075A806412075280BE
:100B7C005F120752805A90E6B8E0FF53071FBF0080
:100B8C004F90E6BAE0FFBF01028005BF0202804031
:100B9C00120752803B90E6BAE0FF702C90E6BCE066
:100BAC00F5821208B2E582601A90E6BCE0F582127A
:100BBC0008D4AE82AF83E0FD4305018E828F83EDB6
:100BCC00F0800D1207528008120752800312075250
:100BDC0090E6A0E04480F022AF82BF03004005EF16
:100BEC00249C500122740F5FFEBE03028007740F19
:100BFC005FFEBE0B45A2AF9205C2AFEF2400F5829B
:100C0C00E43400F5837402F07E0074012FFCE43EA2
:100C1C00FDEC2400F582ED3400F583E51DFDF07448
:100C2C00022FFFE43EFEEF2400F582EE3400F58344
:100C3C00AE1C7F00EEF0A20592AF22E582FF24836A
:100C4C00500122EF5403600122A2AF9206C2AFEF13
:100C5C002400F582E43401F5837402F07E00740103
:100C6C002FFCE43EFDEC2400F582ED3401F583E528
:100C7C001DF074022FFFE43EFEEF2400F582EE34EB
:100C8C0001F583AE1CEEF0A20692AF22AF82BF80BC
:100C9C00004005EF244B500122EF5403600122A2C7
:100CAC00AF9207C2AFEF2480F582E43400F5837471
:100CBC0002F07E0074012FFCE43EFDEC2480F582F2
:100CCC00ED3400F583E51DF074022FFFE43EFEEFDA
:100CDC002480F582EE3400F583AE1CEEF0A2079270
:100CEC00AF22C2E8C2EA751C00751D017582431261
:100CFC000BE4751C80751D00758253120BE400907B
:100D0C00E650E4F00090E652E4F00090E654E4F093
:100D1C000090E656E4F00090E65174FFF00090E687
:100D2C005374FFF00090E65574FFF00090E6577492
:100D3C00FFF00090E658E4F090E65974FFF090E66E
:100D4C005AE4F090E65B74FFF090E65CE4F090E619
:100D5C005D74FFF090E65EE4F090E65F74FFF000E7
:100D6C0090E660E4F00090E66174FFF090E662E4D7
:100D7C00F090E66374FFF090E665E4F090E668743A
:100D8C000BF0AF9174EF5FF591AF9174BF5FF5917C
:100D9C00D2E8D2EA2222AF82120DA1DFFB2290FB15
:100DAC0050A3E582458370F922AE82AF83120DAA5F
:0A0DBC001EBEFF011FEE4F70F4226F
:0D0DD200758121120730E5826003020DCF0C
:00000001FF
