:0600000002006B0206C5C0
:03000B000206E604
:030013000206C71B
:03001B00020F00D1
:030023000217E4DD
:03002B00020F02BF
:0300330002164969
:03003B000217E5C4
:03004300020100B7
:03004B000206C6E4
:03005300020100A7
:03005B000206C8D2
:030063000206C9C9
:0300C400020066D1
:030066000202B5DE
:2001C000C05B85815BAC82AD83AEF0FFC3ED9440EE9400EF940050368C088D09E55B24FC0F
:2001E000F8860A08860B750C00E55B24FAF88682088683E0F50DA3E0F50ED200758251125A
:20020000032C5005758200801675820E8011E55B24FAF88682088683E4F0A3F0758200D09A
:200220005B22C05B85815BAC82AD83AEF0FFE55B24FAF8E608467016BC000EBD400BBE002A
:2002400008BF000575820080497582098044C3ED9440EE9400EF940050358C118D12E55BC4
:2002600024FCF88613088614751500E55B24FAF88616088617D2017518037519A67582512B
:2002800012039A500575820080087582038003758208D05B229003E812179D758200228533
:2002A000822A85832B903E0A1206E850012290E6A07401F02290E6007410F0D206120F0490
:2002C000903E11E0FFBF015C90000A12179D90E680E0FF74084FF0903E117402F07E2E7FE4
:2002E00018740A2EFEE43FFF8E828F83E0FCA3E0FD0CBC00010D8E828F83ECF0EDA3F090B8
:200300003E047401F0903E05747FF07418A3F0903E077403F0903E087481F07418A3F0C289
:0C03200006120F04903E0A120B9B809402
:20182E001201000200000040B40413860000010200010904000000FE0101000902000001D7
:20184E000100803240186718000049188718A1180904000000FE01020309210F00004000AD
:20186E0001010902000001010080325E186718000070188718C618E618776869746571759A
:20188E0061726B407768697465717561726B2E6F7267004578616D706C65206170706C69FF
:2018AE00636174696F6E20776974682044465520737570706F7274004658322073657269E1
:2018CE006573204446552D636C61737320626F6F746C6F6164657200426F6F742045455007
:0418EE00524F4D0008
:1B18F6002E180000015818025A1800C001220295020000000000000000000030
:20032C00C007C006C005AF8230000CAE098E0FAD087E008D108004AE088E0FEF2FFFF58263
:20034C0012051F503EA200E433FD7E0074012DF523E43EF52490000F75F04012055D502379
:20036C0074014FF58212051F5019850D25850E26850A82850B83850CF01205CB40028007D7
:20038C00D38004120536C3D005D006D00722C007C006C005C004C003C002C001C000AF82F9
:2003AC00E4F51AF51BEF2FFFF58212051F40030204C88518F005F07B017C008006EB2BFB42
:2003CC00EC33FCD5F0F7C3E51A9516E51B951740030204C830010CAA128A1CAA117E008AAE
:2003EC001D8004AE118E1CA201E433FD7E0074012DF523E43EF52490001C75F04012055DF8
:20040C0040030204C8C0078B058C068D5C8E5D851182851283C006C005C004C003C001C03D
:20042C000012164BAA82AF83D000D001D003D004D005D006EDC39AF51EEE9FF51FE516C330
:20044C00951AFEE517951BFFC3EE951EEF951FD007500DE516C3951AF51EE517951BF51FBD
:20046C00E51A2513FAE51B3514FDAE15851E23851F248A828D838EF012055D503F120536BE
:20048C00400280497E00E5196006C3EE9519500A8F8212051F40030E80ECEEB51903C380A4
:2004AC002CE51E2511F511E51F3512F512E51E251AF51AE51F351BF51B0203D2120536E5B5
:1E04CC0016B51A08E517B51B03D38001C3D000D001D002D003D004D005D006D0072281
:2004EA00C007C00690E678E0FF7E0020E00810020280F1C3801A90E678E0FF7E0030E203D0
:20050A00C3800D30030990E678E0FFA2E18001D3D006D00722C007AF8290E6787480F09078
:20052A00E679EFF0D2031204EAD00722C007C00690E678E0FF7E0030E203C3801190E67876
:20054A007440F090E678E0FF7E0020E6F6D3D006D00722C007C006C005C004C003C002C0A9
:20056A0001C000AD82AE83AFF0E52345247003D3803E7B007C00EBB52306ECB52402802411
:20058A00EB2DF8EC3EF98F02888289838AF0121803F890E679F0D2031204EA50070BBB0007
:2005AA00D50C80D2EBB52307ECB52403D38001C3D000D001D002D003D004D005D006D007B9
:2005CA0022C007C006C005C004C003C002C001C00085822785832885F029E52545267004EE
:2005EA00D30206B47401B5250614B526028002800690E6787420F090E679E07B007C007963
:20060A00007A00E9B52506EAB52602807AC2031204EA40030206A8740229F8E43AFFE8B5C3
:20062A00250AEFB5260690E6787420F0740129FEE43AFFEEB5252CEFB5262875AF03759A6A
:20064A00E6759B7890E67B7440F0E0AFE0E92527F8EA3528FDAE2988828D838EF0EF120637
:20066A00CA8018E92527FDEA3528FEAF2990E679E0F88D828E838FF01206CA09B900010AAA
:20068A0089038A0402060D90E678E0FF7E0030E203C3801690E678E0FF7E0020E6F6EBB581
:1B06AA002507ECB52603D38001C3D000D001D002D003D004D005D006D007226A
:06009A00E478FFF6D8FD3A
:0106C5003202
:0106C6003201
:0106C7003200
:20007800791BE94400601B7A019018F6780075923EE493F2A308B800020592D9F4DAF275E3
:0200980092FFD5
:0106C80032FF
:0106C90032FE
:03010000020FB239
:030104000217E6F9
:030108000216CF0D
:03010C000217C116
:03011000021802D0
:03011400021827A7
:0301180002169933
:03011C000201B825
:030120000216F0D4
:0301240002182599
:030128000216F1CB
:03012C0002182690
:0301300002182D85
:030134000206E5DB
:030138000206E7D5
:03013C00020F03AC
:030140000216EDB7
:030144000201B8FD
:0301480002181F7B
:03014C0002182076
:0301500002182171
:030154000218226C
:0301580002182367
:03015C0002182462
:030160000217E79C
:030164000201B8DD
:030168000201B8D9
:03016C000201B8D5
:030170000216EF85
:030174000216F27E
:030178000217105B
:03017C0002171255
:030180000216F371
:030184000217114E
:0301880002171348
:03018C000217D780
:0301900002164A0A
:0301940002169AB6
:030198000216D07C
:03019C000216EC5C
:0301A000021698AC
:0301A40002169BA5
:0301A8000216EB51
:0301AC000216EE4A
:0301B000020F013A
:0301B40002182C02
:0101B8003214
:1B06CA0020F71130F6138883A88220F509F6A8837583002280FEF280F5F0222F
:0106E50032E2
:0106E60032E1
:0106E70032E0
:2006E80085822C85832D7407252CFCE4352DFD8C828D83E0FB24FE50047B008008852C82DA
:20070800852D83E0FB8B2EA92AAA2B89828A83E0F8746F58FBBB2121C00089828A83A3A31F
:20072800A3A3E0FBA3E0FFA82E7E00EBB50008EFB50604D0008004D000C322E820E73474C4
:200748000129FEE43AFF8E828F83E07026740629F582E43AF583E0FEA3E0FF4E70158C82C3
:200768008D83E0700E8C828D837401F090E6A003F0D322748058FFBF804C89828A83A3E011
:20078800FFBF054289828A83A3A3E0FEA3E0FF4E7034740629F582E43AF583E0FEA3E0FF8C
:2007A800BE0123BF00208C828D83E090E740F090E6B57401F090E68AE4F090E68B04F090E2
:2007C800E6A003F0D322748058FFBF800280030208A889828A83A3E0FFBF030280030208F7
:2007E800A889828A83A3A3E0FEA3E0FF4E60030208A8740629F582E43AF583E0FEA3E0FF18
:20080800BE0605BF000280030208A88C828D83E0FFBF030280098C828D83E0FFBF06197478
:200828000A252CFEE4352DFF8E828F83E070098E828F837401F0D3228C828D83E0FFBF035C
:20084800098C828D837404F080108C828D83E0FFBF06078C828D837407F0852C82852D83B7
:20086800A3A3A3A3A3A3A3A3E090E740F090E741740AF090E742E4F0A3F08C828D83E090FD
:20088800E744F090E745E4F090E6B504F090E68AE4F090E68B7406F090E6A07480F0D32258
:2008A8008C828D83E0FF24FE4003020B7BE820E75189828A83A3E0FFBF044789828A83A3A7
:2008C800A3E0FEA3E0FF4E7039740629F582E43AF583E0FEA3E0FF4E70288C828D83E0FF23
:2008E800BF0A1F852C82852D83A3A3A3A3A3A3A3A3E4F08C828D837402F090E6A07480F036
:20090800D322748058FFBF800280030209C189828A83A3E0FFBF020280030209C18C828DB8
:2009280083E0FFBF02528C828D837409F0740D252CF582E4352DF583E4F0A3F0A3F0A3F01B
:20094800740B252CF52FE4352DF530740629F582E43AF583E0FBA3E0FF852F82853083EBCA
:20096800F0EFA3F0852C82852D83A3A3A3A3A3A3A3A3A37401F0D3228C828D83E0FFBF09BB
:2009880038740B252CF52FE4352DF530740629F582E43AF583E0FBA3E0FF852F828530833D
:2009A800EBF0EFA3F0852C82852D83A3A3A3A3A3A3A3A3A37401F0D322E830E703020B073F
:2009C80089828A83A3E0FFBF01028003020B078C828D83E0FFBF02738C828D837403F074F2
:2009E8000D252CF582E4352DF583E4F0A3F0A3F0A3F0740B252CF52FE4352DF530740629CD
:200A0800F582E43AF583E0FBA3E0FF852F82853083EBF0EFA3F0852C82852D83A3A3A3A3A5
:200A2800A3A3A3A3A37401F0740A252CF582E4352DF583E4F090E6B504F090E68AE4F090BF
:200A4800E68BF090E6A07480F0D3228C828D83E0FFBF0574740629F52FE43AF530852F82C9
:200A6800853083E0FBA3E0FF4B605D8C828D837403F0740B252CF531E4352DF532852F82B3
:200A8800853083E0FBA3E0FF853182853283EBF0EFA3F0852C82852D83A3A3A3A3A3A3A30D
:200AA800A3A37401F0740A252CF582E4352DF583E4F090E6B504F090E68AE4F090E68BF0C7
:200AC80090E6A07480F0D3228C828D83E0FFBF052E8C828D837406F0852C82852D83A3A3FA
:200AE800A3A3A3A3A3A3A37401F0740A252CF582E4352DF583E4F090E6A07480F0D322E865
:200B080030E703020B7B89828A83A3E0FFBF066389828A83A3A3E0FEA3E0FF4E705574061E
:200B280029F582E43AF583E0FEA3E0FF4E70448C828D83E0FFBF0202802A8C828D83E0FFAE
:200B4800BF0302801F8C828D83E0FFBF050280148C828D83E0FFBF060280098C828D83E088
:200B6800FFBF090F8C828D837402F090E6A07480F0D322852C82852D83A3A3A3A3A3A3A347
:200B8800A3740FF08C828D83740AF090E6A07401F0D32285823385833474092533FCE435DB
:200BA80034FD8C828D83E070012274072533FAE43534FB8A828B83E0F9B909028003020C0E
:200BC800F2C004C005740B2533F53DE43534F53E853D82853E83E0F535A3E0F53674082526
:200BE80033F53BE43534F53C853382853483A3E0F539A3E0F53A740D2533F537E43534F5EC
:200C080038853782853883E0FCA3E0FDA3E0FEA3E0FFC005C004C003C002C03DC03E7440FA
:200C2800C0E074E7C0E0120C33800CC039C03A8C828D838EF0EF22AF82E58124FCF581D097
:200C480002D003D004D005853B82853C83EFF0853B82853C83E0D005D004EF6003020EED4B
:200C680090E6B57401F090E68AE4F0853D82853E83E0FEA3E090E68BEEF090E6A07480F044
:200C8800853D82853E83E0FEA3E0FFC3EE9535EF953650078A828B837402F085378285385B
:200CA80083E0F53FA3E0F540A3E0F541A3E0F542853D82853E83E0FEA3E0FF8E008F01E47E
:200CC800FEFFE8253FF8E93540F9EE3541FEEF3542FF853782853883E8F0E9A3F0EEA3F05A
:200CE800EFA3F08C828D83E4F0228A828B83E0FFBF034790E6A0E0FF7E0020E1F6755C40D9
:200D0800755DE7740B2533F582E43534F583E0F55EA3E0F55F90E0001216A4740A2533FEE5
:200D2800E43534FF8E828F83E060F9752AB8752BE68533828534830206E88A828B83E0FFC8
:200D4800BF04028003020E45C004C00574082533FEE43534FF853382853483A3A3A3E0F513
:200D680039A3E0F53A740B2533F53FE43534F540853F82854083E0F53BA3E0F53C740D25FB
:200D880033F53DE43534F53E853D82853E83E0F8A3E0F9A3E0FCA3E0FDC007C006C004C078
:200DA80003C002C03BC03C7400C0E074E0C0E0120DBC800CC039C03A888289838CF0ED226C
:200DC800AD82E58124FCF581D002D003D004D006D0078E828F83EDF08E828F83E0EDD005F7
:200DE800D0046003020EED853D82853E83E0F543A3E0F544A3E0F545A3E0F546853F828513
:200E08004083E0FEA3E0FF8E008F01E4FEFFE82543F8E93544F9EE3545FEEF3546FF853D74
:200E280082853E83E8F0E9A3F0EEA3F0EFA3F08A828B837405F08C828D83E4F0228A828B5D
:200E480083E0FFBF061F740A2533FEE43534FF8E828F83E060F9752AB8752BE6853382852D
:200E680034830206E88A828B83E0FFBF0777853382853483A3A3A3A3A3E0FEA3E0FF4E60DA
:200E88003674082533F8E43534F9C007C005C004C003C002C001C0008E828F83120069AE61
:200EA80082D000D001D002D003D004D005D00788828983EEF08010853382853483A3A3A3FF
:200EC800A3A3A3A3A3E4F074082533FEE43534FF8E828F83E0700E8A828B837402F08C82DB
:180EE8008D83E4F0228A828B83740AF08C828D83E4F090E6A004F02246
:010F000032BE
:010F010032BD
:010F020032BC
:010F030032BB
:200F0400C205754700D2E890E668E0FF74084FF090E65CE0FF74014FF090E65D7401F0D2A9
:200F2400AF90E680E0FF7E0020E10990E680E0FF74024FF030060F90E680E0FF74084FF042
:200F440090000A12179D90E680E0FF74F75FF022AF82BF00028037BF01028036BF02028018
:200F640039BF04028038BF06028037BF08028036BF80028019BF8102801CBF8202801BBF65
:200F84008402801ABF86028019BF881E801890E6A02290E6A12290E6A22290E6A32290E6F4
:200FA400A42290E6A52290E6A62290000022C022C0E0C0F0C082C083C007C006C005C0046D
:200FC400C003C002C001C000C0D075D000C08675860090E6B8E0FFE4BF800104FE601990B5
:200FE400E6B9E0FDBD061190E6BAE0FCA3E0F5828C5A1217D8021237EF702890E6B9E0FDD2
:20100400BD092090E6BAE0FCA3E08C821217E8500990E6A07480F002123790E6A07401F01F
:20102400021237EE600E90E6B9E0FDBD08061216F4021237BF013190E6B9E0FDBD0B299049
:20104400E6BCE0FCA3E090E6BAE0FBA3E08B598C821217C2500990E6A07480F002123790F2
:20106400E6A07401F0021237E4BF810104FD601790E6B9E0FCBC0A0F90E6BCE0FBA3E08B9E
:20108400821216D1021237EF703590E6B9E0FCBC032D90E6BAE0FBA3E0FCBB010EBC000BE0
:2010A400D20590E6A07480F0021237BB0205BC0002800302123790E6A07480F0021237EE8F
:2010C400603790E6B9E07031A204E433FEA205E43325E0FC420690E740EEF090E741E4F0E2
:2010E40090E6B504F090E68AE4F090E68B7402F090E6A07480F0021237ED602890E6B9E0C9
:20110400702290E740E4F090E741F090E6B504F090E68AE4F090E68B7402F090E6A07480A2
:20112400F0021237BF020280030211E190E6B9E0FEBE03028008BE010280030211E190E630
:20114400BAE0FDA3E0FE4D600302123790E6BCE0FDA3E08D82120F54AD82AE83ED4E700354
:2011640002123790E6B9E0FCBC03188D828E83E0FC4304018D828E83ECF090E6A07480F004
:2011840002123790E6BCE0FBA3E08B82C006C00512169CD005D00640030212378D828E83BB
:2011A400E0FC5304FE8D828E83ECF090E6BCE0FDA3E0740F5DFB7C00530580E423CDC42382
:2011C400541F6DCD541FCD6DCDFEED4203EE420490E683EBF0E0FE74204EF08056BF824D98
:2011E40090E6B9E0704790E6BCE0FEA3E08E82120F54AE82AF83EE4F60398E828F83E0FED5
:201204007F0030E0047F0180027F0090E740EFF090E741E4F090E6B504F090E68AE4F09011
:20122400E68B7402F090E6A07480F0800690E6B812029F5391EF90E65D7401F0D086D0D071
:20124400D000D001D002D003D004D005D006D007D083D082D0F0D0E0D02232AE82AF8375DE
:201264004E00754FE07401B54C2DE54D7029AA4EAB4F8E828F83E493F8A3E493F9885C8907
:201284005D88828983E493F8885E755F008A828B831216A40214F57406B54C41E54D703D22
:2012A4008E828F83A3A3E493FAA3E493FB4A700790E6A07401F022854E57854F588A008B73
:2012C40001885C895D8A828B83E493FA8A5E755F008557828558831216A40214F57402B538
:2012E4004C0280030214148E828F83A3A3A3A3E493FBC3E54D9B40030214148E828F83A30D
:20130400A3A3A3A3E493FAA3E493FBE54D75F002A42AF582EB35F0F583E493F550A3E4937B
:20132400F551854E52854F5374092550F8E43551F988548955755680A84EA94FAA50AB51E1
:201344008A5C8B5D855082855183E493FB8B5E755F00888289831216A4855082855183E466
:2013640093254EF54EE4354FF54FA954AA55AB56854E57854F5889828A838BF0121803FC65
:20138400A3121803FD8C5C8D5D8C828D83E493FC8C5E755F00855782855883C003C002C058
:2013A400011216A4D001D002D00389828A838BF0121803FCA3121803FD8C828D83E49325A3
:2013C4004EF54EE4354FF54F740229F9E43AFA89828A838BF0121803FCA3121803FD4C70D7
:2013E4008F74022552FCE43553FD8C828D83E0FAA3E0FB4A60030214F5E54EC39400FAE571
:201404004F94E0FB8C828D83EAF0EBA3F00214F57403B54C0474018001E4FD6023E54D7011
:201424001FAB4EAC4F755CF2755D189018F2E493FA8A5E755F008B828C831216A40214F52E
:20144400ED70030214EEAC4D7D00EC24FFFAED34FFFB74072EF582E43FF583E493F87900E7
:20146400C3EA98EB648089F063F08095F040030214EE74082EF582E43FF583E493FEA3E484
:2014840093FF1CBCFF011DEDCC25E0CC33FDEC2EF582ED3FF583E493FEA3E493FF854E82EF
:2014A400854F837402F0A385824E85834F04F0A385824E85834F8E828F83E493FD60320EA3
:2014C400BE00010F854E82854F83EDF0A385824E85834FE4F0A385824E85834F90E000E0EF
:2014E400FD0D0D90E000EDF080CC90E6A07401F0227E007FE090E6B57401F090E6B3EFF026
:2015040090E6B4EEF090E6A07480F022AE82AF83A3A3A3A3A3E493F568A3E493F56974044E
:201524002EFEE43FFF755E008E828F83E493FAC3E55E9A400122E55E75F002A42568F5829E
:20154400E56935F0F583E493F55FA3E493F5607409255FF8E43560FA88618A62756380C207
:2015640008855F82856083A3A3A3A3A3E493FAB547028003021644A861A962AA6388828960
:20158400838AF0121803FBA3121803FD74012BF564E43DF565856482856583E493FDBD04D4
:2015A4003C888289838AF0121803F566A3121803F567856682856783A3A3E493FBB55C11F1
:2015C400856682856783A3A3A3E493FBB55D028004C2078002D207A207920880478564829F
:2015E400856583E493FBBB053B300838888289838AF0121803FBA3121803FD74022BFBE498
:201604003DFD8B828D83E493FC53040F8B828D83E4935480C423541FFB90E6834CF0E0FDC7
:2016240074204DF0740228F8E439F9888289838AF0121803FBA3121803FD4B60030215815E
:05164400055E02152CFB
:0418F20004030904DE
:01164900326E
:01164A00326D
:20164B00E55C455D60467A01E55C25E0F55CE55D334012F55DE582955CE583955D40030ACC
:20166B0080E6C3E55D13F55DE55C13F55CC3E582955CF5F0E583955D4005F58385F082C319
:0D168B00E55D13F55DE55C13F55CDAE12229
:01169800321F
:2000A0007800E84400600A790075923EE4F309D8FC7800E84400600C7900903E00E4F0A3F2
:0400C000D8FCD9FA95
:01169900321E
:01169A00321D
:01169B00321C
:08169C0090E6A07480F0D32257
:2016A400AA82AB83AC5CAD5DAE5EAF5FEE60010FEF601775AF078A9B8B9A8C9E8D9D90E69D
:0B16C4007CE090E67BF0DEF6DFF42215
:0116CF0032E8
:0116D00032E7
:1A16D10090E740E4F090E6B504F090E68AE4F090E68B04F090E6A003F02261
:0116EB0032CC
:0116EC0032CB
:0116ED0032CA
:0116EE0032C9
:0116EF0032C8
:0116F00032C7
:0116F10032C6
:0116F20032C5
:0116F30032C4
:1C16F40090E740E547F090E6B57401F090E68AE4F090E68B04F090E6A003F02283
:0117100032A6
:0117110032A5
:0117120032A4
:0117130032A3
:20171400E583700BE58224FA400122B4001122E5826003D5E0FD0075E0FED583F674F9D5A4
:20173400E0FD22C007C006C001C000AE82AF83EE2EF8EF33F9EE28FEEF39FF90E600E0F86E
:20175400794C20E416C3EF13CE13CEFF795AE820E309C3EF13CE13CEFF7963E58124FAF891
:20177400E926C313C313F9C3EE99F582EF9400F583D000D001D006D0075001220217147483
:2017940011C0E0121737158122C007C006AE82AF837411C0E0EE4F600D1EBEFF011F900320
:0D17B400E812173780EF1581D006D007220C
:0117C10032F5
:1517C200AF82E559700D8F5C85595D903E00121510D322C32221
:02006900E4733E
:0117D70032DF
:0C17D80085824C855A4D903E0002125F45
:0117E40032D2
:0117E50032D1
:0117E60032D0
:0117E70032CF
:1A17E800E582FF6003BF01108F47755CFF755DFF903E00121510D322C322F8
:0118020032B3
:0D006B00758169121828E5826003020066A5
:1C18030020F71430F6148883A88220F507E6A88375830022E280F7E49322E022F4
:01181F003296
:011820003295
:011821003294
:011822003293
:011823003292
:011824003291
:011825003290
:01182600328F
:01182700328E
:0418280075820022A3
:01182C003289
:01182D003288
:00000001FF
