:0600000002006B0206F68F
:03000B00020717D2
:030013000206F8EA
:03001B00020F8051
:030023000210C008
:03002B00020F823F
:03003300020F8435
:03003B000210C1EF
:03004300020100B7
:03004B000206F7B3
:03005300020100A7
:03005B000206F9A1
:030063000206FA98
:0300C400020066D1
:030066000202BDD6
:2001C000C010858110AC82AD83AEF0FFC3ED9440EE9400EF940050398C218D22E51024FCBB
:2001E000F88623088624752500E51024FAF88682088683E0F526A3E0F5277528017582516E
:20020000120335E5826005758200801675820E8011E51024FAF88682088683E4F0A3F075A5
:200220008200D01022C010858110AC82AD83AEF0FFE51024FAF8E608467016BC000EBD40CD
:200240000BBE0008BF0005758200804C7582098047C3ED9440EE9400EF940050388C2B8D2A
:200260002CE51024FCF8862D08862E752F00E51024FAF886300886317532017533037534B6
:20028000A67582511203B0E582600575820080087582038003758208D010229003E8121045
:2002A0009A7582002285823B85833C903E0A120719E58260012290E6A07401F02290E600FE
:2002C0007410F07582011210E1903E11E0FFBF015C90000A12109A90E680E043E008F090FE
:2002E0003E117402F07E677F18740A2EFEE43FFF8E828F83E0FCA3E0FD0CBC00010D8E829D
:200300008F83ECF0EDA3F0903E047401F0903E0574B8F07418A3F0903E077403F0903E0818
:1503200074BAF07418A3F07582001210E1903E0A120C1B80946C
:201867001201000200000040B40413860000010200010904000000FE01010009020000019E
:20188700010080327918A01800008218C018DA180904000000FE01020309210F0000400057
:2018A70001010902000001010080329718A0180000A918C018FF181F19776869746571750A
:2018C70061726B407768697465717561726B2E6F7267004578616D706C65206170706C69C6
:2018E700636174696F6E20776974682044465520737570706F7274004658322073657269A8
:201907006573204446552D636C61737320626F6F746C6F6164657200426F6F7420454550CD
:04192700524F4D00CE
:1B192F006718000001911802931800C00125029B020000000000000000000042
:20033500C007C006C005AF82E528600AAE228E29AE218E2A8004AE218E29EF2FFFF58212F0
:20035500054BE5826048E528FD3395E0FE74012DF509E43EF50A90002975F04012057FE5DF
:2003750082602B74014FF58212054BE582601F85260B85270C8523828524838525F0120563
:20039500F6E5827004F582800B7582018006120563758200D005D006D00722C007C006C095
:2003B50005C004C003C002C001C000AF82E4F535F536EF2FFFF58212054BE5827003020419
:2003D500ECAC338CF005F07B017C008006EB2BFBEC33FCD5F0F7C3E5359530E536953140A3
:2003F500030204ECE532600AAA2C8A37AA2B8A388004AA2B8A37E532FA3395E0FE74012AD4
:20041500F509E43EF50A90003775F04012057FE58270030204ECC0078B058C068D138E14AF
:20043500852B82852C83C006C005C004C003C001C000120F86AA82AF83D000D001D003D065
:2004550004D005D006EDC39AF539EE9FF53AE530C39535FEE5319536FFC3EE9539EF953AE7
:20047500D007500DE530C39535F539E5319536F53AE535252DFAE536352EFDAE2F853909CE
:20049500853A0A8A828D838EF012057FE5826047120563E5827004F58280517E00E53460AC
:2004B50006C3EE9534500C8F8212054BE58270030E80EAEEB534057582008030E539252B95
:2004D500F52BE53A352CF52CE5392535F535E53A3536F5360203EB120563E530B53508E599
:1D04F50031B53603D38001C3E433F582D000D001D002D003D004D005D006D0072268
:20051200C007AF8290E678E020E00CE50860F5750800758200801F90E678E030E2057582C6
:20053200008013EF600D90E678E0FFA2E1E433F5828003758201D00722C007AF8290E67882
:200552007480F090E679EFF0758201120512D0072290E678E030E2047582002290E678745E
:2005720040F090E678E020E6F975820122C007C006C005C004C003C002C001C000AD82AE59
:2005920083AFF0E509450A700575820180457B007C00EBB50906ECB50A028027EB2DF8ECC2
:2005B2003EF98F02888289838AF01210C5F890E679F0758201120512E58260070BBB00D28C
:2005D2000C80CFEBB50907ECB50A03D38001C3E433F582D000D001D002D003D004D005D0EC
:2005F20006D00722C007C006C005C004C003C002C001C00085820D85830E85F00FE50B45EB
:200612000C70067582010206E57401B50B0614B50C028002800690E6787420F090E679E006
:200632007B007C0079007A00E9B50B07EAB50C030206C2758200120512E58270030206D5BF
:20065200740229F8E43AFFE8B50B0AEFB50C0690E6787420F0740129FEE43AFFEEB50B2C67
:20067200EFB50C2875AF03759AE6759B7890E67B7440F0E0AFE0E9250DF8EA350EFDAE0FEE
:2006920088828D838EF0EF1206FB8018E9250DFDEA350EFEAF0F90E679E0F88D828E838F9F
:2006B200F01206FB09B900010A89038A0402063A90E678E030E205758200801790E678E0BB
:2006D20020E6F9EBB50B07ECB50C03D38001C3E433F582D000D001D002D003D004D005D043
:0406F20006D0072205
:06009A00E478FFF6D8FD3A
:0106F60032D1
:0106F70032D0
:0106F80032CF
:20007800791BE94400601B7A0190192F780075923EE493F2A308B800020592D9F4DAF275A9
:0200980092FFD5
:0106F90032CE
:0106FA0032CD
:0301000002118A5F
:030104000210C224
:03010800021002E0
:03010C000210BE20
:030110000210C416
:030114000217DDF2
:03011800020FD4FF
:03011C000201B825
:03012000021009C1
:030124000217DBE4
:0301280002100AB8
:03012C000217DCDB
:03013000021808AA
:03013400020716A9
:03013800020718A3
:03013C00020F832C
:03014000021006A4
:030144000201B8FD
:030148000217D5C6
:03014C000217D6C1
:030150000217D7BC
:030154000217D8B7
:030158000217D9B2
:03015C000217DAAD
:030160000210C3C7
:030164000201B8DD
:030168000201B8D9
:03016C000201B8D5
:0301700002100872
:0301740002100B6B
:0301780002100D65
:03017C0002100F5F
:0301800002100C5E
:0301840002100E58
:0301880002101052
:03018C000210BF9F
:03019000020F85D6
:03019400020FD582
:030198000210034F
:03019C0002100549
:0301A000020FD378
:0301A400020FD671
:0301A8000210043E
:0301AC0002100737
:0301B000020F81BA
:0301B4000217FB34
:0101B8003214
:1B06FB0020F71130F6138883A88220F509F6A8837583002280FEF280F5F022FE
:0107160032B0
:0107170032AF
:0107180032AE
:2007190085823D85833E7407253DFCE4353EFD8C828D83E024FE50067A007B00800B853D51
:2007390082853E83E0F9FA7B008A3FA93BAB3C89828B83E0F8746F58FABA2121C000898209
:200759008B83A3A3A3A3E0FAA3E0FFA83F7E00EAB50008EFB50604D0008006D000758200B3
:2007790022E820E736740129FEE43BFF8E828F83E07028740629F582E43BF583E0FEA3E0B3
:20079900FF4E70178C828D83E070108C828D837401F090E6A003F075820122C001C003883C
:2007B9004075410074805540FA7B00BA8005BB00028006D003D0018052D003D00189828BFA
:2007D90083A3E0FABA054489828B83A3A3E0FAA3E0FF4A7036740629F582E43BF583E0FEC3
:2007F900A3E0FFBE0125BF00228C828D83E090E740F090E6B57401F090E68AE4F090E68B8F
:2008190004F090E6A003F07582012274805540FE7F00BE8005BF0002800302090889828B72
:2008390083A3E0FFBF0302800302090889828B83A3A3E0FEA3E0FF4E60030209087406291A
:20085900F582E43BF583E0FEA3E0FFBE0605BF000280030209088C828D83E0FFBF030280B0
:20087900098C828D83E0FFBF061B740A253DFEE4353EFF8E828F83E0700B8E828F83740131
:20089900F0758201228C828D83E0FFBF03098C828D837404F080108C828D83E0FFBF06078E
:2008B9008C828D837407F0853D82853E83A3A3A3A3A3A3A3A3E090E740F090E741740AF047
:2008D90090E742E4F0A3F08C828D83E090E744F090E745E4F090E6B504F090E68AE4F09023
:2008F900E68B7406F090E6A07480F0758201228C828D83E0FF24FE4003020BF9E820E75346
:2009190089828B83A3E0FFBF044989828B83A3A3E0FEA3E0FF4E703B740629F582E43BF531
:2009390083E0FEA3E0FF4E702A8C828D83E0FFBF0A21853D82853E83A3A3A3A3A3A3A3A34A
:20095900E4F08C828D837402F090E6A07480F07582012274805540FE7F00BE8005BF000208
:200979008003020A2D89828B83A3E0FFBF02028003020A2D8C828D83E0FFBF02548C828DDB
:20099900837409F0740D253DF582E4353EF583E4F0A3F0A3F0A3F0740B253DF540E4353E2B
:2009B900F541740629F582E43BF583E0FAA3E0FF854082854183EAF0EFA3F0853D82853EE8
:2009D90083A3A3A3A3A3A3A3A3A37401F0758201228C828D83E0FFBF093A740B253DF5402C
:2009F900E4353EF541740629F582E43BF583E0FAA3E0FF854082854183EAF0EFA3F0853D96
:200A190082853E83A3A3A3A3A3A3A3A3A37401F075820122E830E703020B8389828B83A36D
:200A3900E0FFBF01028003020B838C828D83E0FFBF02028003020AC68C828D837403F074DB
:200A59000D253DF582E4353EF583E4F0A3F0A3F0A3F0740B253DF540E4353EF541740629F5
:200A7900F582E43BF583E0FAA3E0FF854082854183EAF0EFA3F0853D82853E83A3A3A3A3F1
:200A9900A3A3A3A3A37401F0740A253DF582E4353EF583E4F090E6B504F090E68AE4F0902C
:200AB900E68BF090E6A07480F0758201228C828D83E0FFBF05028003020B4A740629F54033
:200AD900E43BF541854082854183E0FAA3E0FF4A605F8C828D837403F0740B253DF542E432
:200AF900353EF543854082854183E0FAA3E0FF854282854383EAF0EFA3F0853D82853E83CC
:200B1900A3A3A3A3A3A3A3A3A37401F0740A253DF582E4353EF583E4F090E6B504F090E60D
:200B39008AE4F090E68BF090E6A07480F0758201228C828D83E0FFBF05308C828D837406B0
:200B5900F0853D82853E83A3A3A3A3A3A3A3A3A37401F0740A253DF582E4353EF583E4F0E8
:200B790090E6A07480F075820122E830E703020BF989828B83A3E0FFBF066589828B83A3BF
:200B9900A3E0FEA3E0FF4E7057740629F582E43BF583E0FEA3E0FF4E70468C828D83E0FF12
:200BB900BF0202802A8C828D83E0FFBF0302801F8C828D83E0FFBF050280148C828D83E0FA
:200BD900FFBF060280098C828D83E0FFBF09118C828D837402F090E6A07480F0758201223F
:200BF900853D82853E83A3A3A3A3A3A3A3A3740FF08C828D83740AF090E6A07401F07582C9
:200C1900012285824485834574092544FCE43545FD8C828D83E070012274072544FAE4353B
:200C390045FB8A828B83E0F9B909028003020D75C004C005740B2544F8E43545F98882894A
:200C590083E0F546A3E0F54774082544F54CE43545F54D854482854583A3E0F54AA3E0F586
:200C79004B740D2544F548E43545F549854882854983E0FCA3E0FDA3E0FEA3E0FFC005C0C9
:200C990004C003C002C000C0017440C0E074E7C0E0120CAF800CC04AC04B8C828D838EF0D8
:200CB900EF22AF82E58124FCF581D002D003D004D005854C82854D83EFF0854C82854D8360
:200CD900E0D005D004EF6003020F6D90E6B57401F090E68AE4F0740B2544F54CE43545F5C2
:200CF9004D854C82854D83E090E68BF090E6A07480F0854C82854D83E0F8A3E0F9C3E895DF
:200D190046E9954750078A828B837402F0854882854983E0F54EA3E0F54FA3E0F550A3E003
:200D3900F551854C82854D83E0FEA3E0FF8E008F01E4FEFFE8254EF8E9354FF9EE3550FE23
:200D5900EF3551FF854882854983E8F0E9A3F0EEA3F0EFA3F08C828D83E4F0228A828B83E1
:200D7900E0FFBF034490E6A0E020E1F97513407514E7740B2544F582E43545F583E0F5152E
:200D9900A3E0F51690E000120FD7740A2544FEE43545FF8E828F83E060F9753BB8753CE6A8
:200DB9008544828545830207198A828B83E0FFBF04028003020EC5C004C00574082544FEDE
:200DD900E43545FF854482854583A3A3A3E0F548A3E0F549740B2544F54EE43545F54F85EC
:200DF9004E82854F83E0F54AA3E0F54B740D2544F54CE43545F54D854C82854D83E0F8A3E3
:200E1900E0F9A3E0FCA3E0FDC007C006C004C003C002C04AC04B7400C0E074E0C0E0120ECE
:200E39003C800CC048C049888289838CF0ED22AD82E58124FCF581D002D003D004D006D0D5
:200E5900078E828F83EDF08E828F83E0EDD005D0046003020F6D854C82854D83E0F552A388
:200E7900E0F553A3E0F554A3E0F555854E82854F83E0FEA3E0FF8E008F01E4FEFFE825522E
:200E9900F8E93553F9EE3554FEEF3555FF854C82854D83E8F0E9A3F0EEA3F0EFA3F08A82DF
:200EB9008B837405F08C828D83E4F0228A828B83E0FFBF061F740A2544FEE43545FF8E825F
:200ED9008F83E060F9753BB8753CE68544828545830207198A828B83E0FFBF077785448274
:200EF900854583A3A3A3A3A3E0FEA3E0FF4E603674082544F8E43545F9C007C005C004C0D5
:200F190003C002C001C0008E828F83120069AE82D000D001D002D003D004D005D0078882D5
:200F39008983EEF08010854482854583A3A3A3A3A3A3A3A3E4F074082544FEE43545FF8ECC
:200F5900828F83E0700E8A828B837402F08C828D83E4F0228A828B83740AF08C828D83E468
:070F7900F090E6A004F02255
:010F8000323E
:010F8100323D
:010F8200323C
:010F8300323B
:010F8400323A
:010F85003239
:200F8600E513451460467A01E51325E0F513E514334012F514E5829513E583951440030AE0
:200FA60080E6C3E51413F514E51313F513C3E5829513F5F0E58395144005F58385F082C39B
:0D0FC600E51413F514E51313F513DAE12219
:010FD30032EB
:2000A0007800E84400600A790075923EE4F309D8FC7800E84400600C7900903E00E4F0A3F2
:0400C000D8FCD9FA95
:010FD40032EA
:010FD50032E9
:010FD60032E8
:200FD700AA82AB83AC13AD14AE15AF16EE60010FEF601775AF078A9B8B9A8C9E8D9D90E695
:0B0FF7007CE090E67BF0DEF6DFF422E9
:0110020032BB
:0110030032BA
:0110040032B9
:0110050032B8
:0110060032B7
:0110070032B6
:0110080032B5
:0110090032B4
:01100A0032B3
:01100B0032B2
:01100C0032B1
:01100D0032B0
:01100E0032AF
:01100F0032AE
:0110100032AD
:20101100E583700BE58224FA400122B4001122E5826003D5E0FD0075E0FED583F674F9D5AE
:20103100E0FD22C007C006C001C000AE82AF83EE2EF8EF33F9EE28FEEF39FF90E600E0F878
:20105100794C20E416C3EF13CE13CEFF795AE820E309C3EF13CE13CEFF7963E58124FAF89B
:20107100E926C313C313F9C3EE99F582EF9400F583D000D001D006D0075001220210117497
:2010910011C0E0121034158122C007C006AE82AF837411C0E0EE4F600D1EBEFF011F900334
:0D10B100E812103480EF1581D006D0072220
:0110BE0032FF
:02006900E4733E
:0110BF0032FE
:0110C00032FD
:0110C10032FC
:0110C20032FB
:0110C30032FA
:0110C40032F9
:0D006B007581651217F7E5826003020066DB
:1C10C50020F71430F6148883A88220F507E6A88375830022E280F7E49322E0223A
:2010E100AF82755700755800D2E890E668E043E008F090E65CE043E001F090E65D7401F094
:20110100D2AF90E680E020E10890E680E043E002F0EF600E90E680E043E008F090000A1289
:20112100109A90E680E053E0F7F022AF82BF00028037BF01028036BF02028039BF04028010
:2011410038BF06028037BF08028036BF80028019BF8102801CBF8202801BBF8402801ABF25
:2011610086028019BF881E801890E6A02290E6A12290E6A22290E6A32290E6A42290E6A513
:201181002290E6A62290000022C020C0E0C0F0C082C083C007C006C005C004C003C002C02C
:2011A10001C000C0D075D000C08675860090E6B8E0FFE4BF800104FE601990E6B9E0FDBDE2
:2011C100061190E6BAE0FCA3E0F5828C121217FC0213FBEF702790E6B9E0FDBD091F90E631
:2011E100BAE0F582121849E582600990E6A07480F00213FB90E6A07401F00213FBEE600EA9
:2012010090E6B9E0FDBD080612182D0213FB8F05BD012E90E6B9E0FDBD0B2690E6BCE0FD06
:2012210090E6BAE0F5118D821217DEE582600990E6A07480F00213FB90E6A07401F0021317
:20124100FBE4BF810104FD601490E6B9E0FCBC0A0C90E6BCE0F5821218130213FBEF7036B0
:2012610090E6B9E0FCBC032E90E6BAE0FBA3E0FCBB010FBC000C75570190E6A07480F0028F
:2012810013FBBB0205BC000280030213FB90E6A07480F00213FBEE603290E6B9E0702CAE49
:2012A10056E55725E0FC420690E740EEF090E741E4F090E6B504F090E68AE4F090E68B74C9
:2012C10002F090E6A07480F00213FBED602890E6B9E0702290E740E4F090E741F090E6B59D
:2012E10004F090E68AE4F090E68B7402F090E6A07480F00213FBBF020280030213A690E63D
:20130100B9E0FEBE03028008BE010280030213A690E6BAE0FDA3E0FE4D60030213FB90E627
:20132100BCE0F58212112CAD82AE83ED4E70030213FB90E6B9E0FCBC03188D828E83E0FC4E
:201341004304018D828E83ECF090E6A07480F00213FB90E6BCE0F582C006C005121809E512
:2013610082D005D00670030213FB8D828E83E0FC5304FE8D828E83ECF090E6BCE0FDA3E0DD
:201381008D0453040F530580E4C423CDC423541F6DCD541FCD6DCDFE90E683ED4CF0E04394
:2013A100E020F08055BF824C90E6B9E0704690E6BCE0F58212112CAE82AF83EE4F603B8E75
:2013C100828F83E0FE5306017F00EE4FB40100B3E433FF90E740F090E741E4F090E6B504A4
:2013E100F090E68AE4F090E68B7402F090E6A07480F0800690E6B81202A55391EF90E65DB4
:201401007401F0D086D0D0D000D001D002D003D004D005D006D007D083D082D0F0D0E0D0EF
:201421002032AE82AF837401B55D28E55E70248E828F83E493FCA3E493FD8C138D148C8277
:201441008D83E493FC8C1575160090E000120FD70216827406B55D38E55E70348E828F830D
:20146100A3A3E493FCA3E493FD4C700790E6A07401F0228C028D038A138B148C828D83E4DF
:2014810093FC8C1575160090E000120FD70216827402B55D0280030215AE8E828F83A3A354
:2014A100A3A3E493FDC3E55E9D40030215AE8E828F83A3A3A3A3A3E493FCA3E493FDE55EA8
:2014C10075F002A42CF582ED35F0F583E493FCA3E493FD74092CFAE43DFB8A5F8B607561E0
:2014E100808C008D0388138B148C828D83E493FB8B1575160090E000C005C004120FD7D099
:2015010004D0058C828D83E493FC2400F562E434E0F563A95FAA60AB618562648563658956
:20152100828A838BF01210C5FCA31210C5FD8C138D148C828D83E493FC8C15751600856450
:2015410082856583C003C002C001120FD7D001D002D00389828A838BF01210C5FCA31210AC
:20156100C5FD8C828D83E4932562F562E43563F563740229F9E43AFA89828A838BF01210FC
:20158100C5FCA31210C54C709090E002E0FCA3E0FD4C6003021682E562C39400FCE5639426
:2015A100E0FD90E002ECF0EDA3F00216827403B55D0474018001E4FD601EE55E701A7513AE
:2015C1002B75141990192BE493FC8C1575160090E000120FD7021682ED700302167BAC5ECB
:2015E1007D00EC24FFFAED34FFFB74072EF582E43FF583E493F87900C3EA98EB648089F019
:2016010063F08095F0507374082EF582E43FF583E493FEA3E493FF1CBCFF011DEC2CFCED6E
:2016210033FDEC2EF582ED3FF583E493FEA3E493FF90E0007402F090E00104F074012401E1
:20164100FCE434E0FD8E828F83E493FB60330EBE00010F8C828D83EBF074012CFAE43DFBE5
:201661008A828B83E4F0042AFCE43BFD90E000E0FB0B0B90E000EBF080CB90E6A07401F0C3
:20168100227E007FE090E6B57401F090E6B3EFF090E6B4EEF090E6A07480F022AE82AF832C
:2016A100A3A3A3A3A3E493FCA3E493FD74042EFEE43FFF7515008E828F83E493FAC3E515D0
:2016C1009A400122E51575F002A42CF582ED35F0F583E493F516A3E493F51774092516F882
:2016E100E43517FA88188A19751A807A00851682851783A3A3A3A3A3E493F9B55802800386
:201701000217D085181B85191C851A1D851B82851C83851DF01210C5F8A31210C5F988826D
:201721008983A3E493F9B9043C851B82851C83851DF01210C5F51EA31210C5F51F851E82FB
:20174100851F83A3A3E493B51311851E82851F83A3A3A3E493F8B514028004780080027866
:201761000188028047B90544EA6041851B82851C83851DF01210C5F8A31210C5F9888289BC
:2017810083A3A3E493F9740F59F8530180E423C9C423541F69C9541FC969C930E40244E063
:2017A100FB90E683E948F0E043E020F07402251BF51BE4351CF51C851B82851C83851DF01C
:1417C1001210C5F9A31210C5FB49600302170D05150216B7F4
:04192B0004030904A4
:0117D50032E1
:0117D60032E0
:0117D70032DF
:0117D80032DE
:0117D90032DD
:0117DA0032DC
:0117DB0032DB
:0117DC0032DA
:0117DD0032D9
:1917DE00AF82E511700F8F13851114903E0012169D75820122758200223A
:0417F70075820022D5
:0117FB0032BB
:0C17FC0085825D85125E903E0002142381
:0118080032AD
:0A18090090E6A07480F075820122C1
:1A18130090E740E4F090E6B504F090E68AE4F090E68B04F090E6A003F0221D
:1C182D0090E740E558F090E6B57401F090E68AE4F090E68B04F090E6A003F02237
:1E184900E582FF6003BF01128F587513FF7514FF903E0012169D75820122758200222A
:00000001FF
