:04000000020059326F
:01000B0032C2
:0100130032BA
:01001B0032B2
:0100230032AA
:01002B0032A2
:01003300329A
:01003B003292
:03004300023F0079
:01004B003282
:03005300023F0069
:0300B200750D01C8
:0300C700020056DE
:0300560002026C37
:2000CA00E582FF24F0500475823F22EF24F650088F0674572EF5822274302FF58222E58295
:2000EA0075F004A4FFAEF024D0FCEE343EFDE50AC4540FF582C007C006C005C0041200CA80
:20010A00AB82D004D005D006D0078C828D83EBF074022FFFE43EFEEF24D0FFEE343EFE74E1
:20012A000F550AF582C007C0061200CAAD82D006D0078F828E83EDF022750B00903ED074D8
:20014A0066F075480B754900754A407544F87545007546017547007582511208F1850B0AEA
:20016A007582001200E875480B754900754A407544F97545007546017547007582511208B9
:20018A00F1850B0A7582011200E875480B754900754A407544FA75450075460175470075F9
:2001AA0082511208F1850B0A7582021200E875480B754900754A407544FB7545007546011B
:2001CA007547007582511208F1850B0A7582031200E875480B754900754A407544FC754584
:2001EA00007546017547007582511208F1850B0A7582041200E875480B754900754A4075A1
:20020A0044FD7545007546017547007582511208F1850B0A7582051200E875480B754900F8
:20022A00754A407544FE7545007546017547007582511208F1850B0A7582061200E875482B
:20024A000B754900754A407544FF7545007546017547007582511208F1850B0A75820702F5
:20026A0000E890E60BE4F0C200C20190E60B7403F090E680E0FF740A4FF09005DC120E881F
:20028A0090E680E0FF74F75FF090E600E0FF74E75F4410F090E100E4F5F0120DA312014320
:2002AA00D2E890E668E0FF74084FF090E65CE0FF74014FF0E0FF74104FF0E0FF74204FF049
:2002CA00D2AF3000FD120956C20080F675820022AF8290E6BBE0FD7E0090E6BAE07B00421A
:2002EA0006EB420590E6BFE0FB7C0090E6BEE07A004204EA42038F017A00C007C006C005D1
:20030A00C004C003C004C003C006C005C001C00274FEC0E07415C0E07480C0E0120F03E5DF
:20032A008124F7F581D003D004D005D006D007BFB102800302043690E6B8E0FFBF400280B9
:20034A0074BFC0028003020419EC4B700302041DC374409CE49B50067A407F0080048C02FC
:20036A008B0790E6A0E0FF20E1F88A467547007548407549E7754A008E448D45758251C05A
:20038A0006C005C004C003C0021208F1D002D003D004D005D00690E68AE4F00000000090AC
:2003AA00E68BEAF07F00ECC39AFCEB9FFBEA2EFEEF3DFD8094EC4B605A90E68BE4F090E610
:2003CA00A0E0FF20E1F890E68BE0FF8F39753A00753B40753CE7753D008E378D3875825138
:2003EA00C007C006C005C004C00312085BE582D003D004D005D006D0077003F582227A008F
:20040A00EF2EFEEA3DFDECC39FFCEB9AFB80A675820022742BC0E07416C0E07480C0E0127B
:20042A000F031581158115817582012275820022AD67AE68AF698D828E838FF0E4120D7156
:20044A0075820122AE0C7F00C006C0077433C0E07416C0E07480C0E0120F03E58124FBF50F
:20046A008175820122850D8222AF828F057E00C007C005C0067454C0E07416C0E07480C0C6
:20048A00E0120F03E58124FBF581D0078F0D75820122C0E0C082C083C007C0D075D000D233
:2004AA0000AF9174EF5FF59190E65D7401F0D0D0D007D083D082D0E032C022C0E0C0F0C082
:2004CA0082C083C007C006C005C004C003C002C001C000C0D075D000758200120C57AF91B0
:2004EA0074EF5FF59190E65D7410F0D0D0D000D001D002D003D004D005D006D007D083D004
:20050A0082D0F0D0E0D02232C022C0E0C0F0C082C083C007C006C005C004C003C002C001A8
:20052A00C000C0D075D000758201120C57AF9174EF5FF59190E65D7420F0D0D0D000D0018F
:17054A00D002D003D004D005D006D007D083D082D0F0D0E0D0223266
:2015FE0048616E646C652056656E646F7220436F6D6D616E6420253032782C20616464720E
:20161E002025642C206C656E2025640A00416C6C204F4B0A00486F73742077616E747320DD
:20163E00746F2073657420696E746572666163653A2025640A00686F73742077616E747374
:0D165E0020636F6E6669673A2025640A00FC
:203E000012010002FFFFFF40192A41540200010203010A060002FFFFFF40010009023C00D8
:203E200001010080320904000006FFFFFF000705010200020007058102000200070502020C
:203E400000020007050402000200070586020002000705880200020009023C000101008055
:203E6000320904000006FFFFFF00070501024000000705810240000007050202400000078B
:203E80000504024000000705860240000007058802400000040309040E034E0075006D00D8
:203EA000610074006F0028034F0070007300690073002000280045004500500052004F00C2
:203EC0004D0020004D006F0064006500290022033000310032003300340035003600370006
:123EE0003800390061006200630064006500660000000A
:20056100AF82E5282523F52DE5293524F52E752F02903C00E4F0EF2FFF903C00E0E06004F5
:200581007582002290E678E0FB74804BF0E0FB30E20C90000AC007120E88D00780DB90E69F
:2005A10079EFF090E678E0FB20E007903C00E0E060F1903C00E0E060047582002290E6783E
:2005C100E0FB20E2B490E678E0FB20E13B90E678E0FB74404BF090E678E0FB30E607903C1A
:2005E10000E0E060F1903C00E0E0600475820022E52F14FB8B2F7003F5822290000AC00796
:20060100120E88D00702057A7A007B00C3EA952DEB952E40030206ABC3EA9523EB95245078
:2006210016EA2525F8EB3526F9AC27888289838CF01214FDFC801DEAC39523F8EB9524F91D
:20064100E8252AF8E9352BF9AE2C888289838EF01214FDFC90E679ECF00ABA00010B90E68A
:2006610078E0FE20E007903C00E0E060F1903C00E0E060047582002290E678E0FE30E20355
:2006810002057A90E678E0FE30E10302060D90E678E0FF74404FF090E678E0FF30E60790A9
:2006A1003C00E0E060F17582002290E678E0FF74404FF090E678E0FF30E607903C00E0E09D
:2006C10060F1903C00E0E060047582002275820122AF82903C00E4F0EF2FFF4307017401F7
:2006E100B53008E4B5310474018001E4FE903C00E0E06004758200227C007D0090E678E096
:20070100FB74804BF0E0FB30E21090000AC007C006120E88D006D00780D390E679EFF09084
:20072100E678E0FB20E007903C00E0E060F1903C00E0E060047582002290E678E0FB20E2C7
:20074100AC90E678E0FB20E11C90E678E0FB74404BF090E678E0FB30E607903C00E0E0607C
:20076100F175820022EE600990E678E0FB74204BF090E679E0E4F535F53674012535F8E4CC
:200781003536F9C3E89530E99531506A90E678E0F920E007903C00E0E060F1903C00E0E0E4
:2007A10060047582002290E678E0F930E2030206EE74022535F8E43536F9E8B5300DE9B561
:2007C100310990E678E0F9742049F0A835A9360535E4B535020536AC35AD36E82532F8E965
:2007E1003533F9AB3490E679E0FA888289838BF0120D7102077B90E678E0FB20E007903CAE
:2008010000E0E060F1903C00E0E060047582002290E678E0FB30E2030206EE90E678E0FF1C
:2008210074404FF0EC2532FCED3533FDAF3490E679E0FE8C828D838FF0120D7190E678E088
:20084100FF30E607903C00E0E060F1903C00E0E06004758200227582012285823EE4F5421B
:20086100F543AB37AC38C3E5429539E543953A40030208ED7A0090E678E0FF30E4067A01B4
:200881008C078F3F8A070AEF243FF98B06A7068A070AEF243FF9AE42AF430542E4B54202E6
:2008A1000543EE253BFEEF353CFFAD3D8E828F838DF01214FDF78A2375240075253F7526E7
:2008C10000752740E4F528F529F52AF52BF52C853E82C004C003120561E582D003D00470FA
:2008E10003F582220BBB00010C02086775820122AF827E0090E678E0FD30E4067E01AD45F8
:200901008D4B8E050EED244BF9AC44A7048E2375240075254B752600752740E4F528F529A8
:20092100F52AF52BF52C8F82C007120561E582D0077003F582228546308547318548328540
:150941004933854A348F821206D2E5827003F58222758201229A
:06008800E478FFF6D8FD4C
:1200B500750F0075100075115875123E75131C75143E22
:2009560090E6B9E0FF24F45003020A5CEF240A83F582EF241083F583E473889E5CB45C5C26
:20097600CA5CDAF1093D09090A090A0A090A09090A0A120AD6E5826003020A7290E6A0E088
:20099600FF74014FF0020A72120B63E5826003020A7290E6A0E0FF74014FF0020A72120B04
:2009B600D2E5826003020A7290E6A0E0FF74014FF0020A721202D6E5826003020A72120C90
:2009D60082020A7212046FAF8290E740EFF090E68AE4F090E68B04F0020A7290E6BAE0F569
:2009F60082120473E582707490E6A0E0FF74014FF0806990E6BCE0FF75670E756800756943
:200A1600408F8212043AE582700B90E6A0E0FF74014FF0804790E740E50EF090E68AE4F05F
:200A360090E68B04F0803590E6BCE0FF90E6BAE0F50C8F8212044EE582702190E6A0E0FF72
:200A560074014FF0801690E6B9E0F5821202DAE582700990E6A0E0FF74014FF090E6A0E043
:200A7600FF74804FF022AF828F0653067FEE24F75003020AD2EE240A83F582EE240D83F587
:200A960083E473ABAFC2D2C6D2CAD2CE0A0A0A0A0A0A0A0A0A90E6A022EF30E7067EA27F39
:200AB600E680047EA17FE68E828F832290E6A32290E6A42290E6A52290E6A622900000224A
:200AD60090E6B8E0FFBF8002801FBF81028005BF8273803490E740E4F090E741F090E68AB1
:200AF600F090E68B7402F08060E51025E0FFE50F420790E740EFF090E741E4F090E68AF061
:200B160090E68B7402F0804190E6BCE0F582120A7CAE82AF838E048F05EE4F7003F58222A5
:200B36008C828D83E0FC30E0047F0180027F0090E740EFF090E741E4F090E68AF090E68BFD
:200B56007402F08004758200227582012290E6B8E0FF6005BF0258801B90E6BAE0FFBF016D
:200B760005751000805290E6BAE0FFBF060280487582002290E6BAE0703190E6BCE0F58212
:200B9600120A7CAE82AF83E0FD5305FE8E828F83EDF090E6BCE0FF30E70343071053071F15
:200BB60090E683EFF074204FF0800D7582002290E6B9E0F5820202DA7582012290E6B8E042
:200BD600FF6005BF026E802690E6BAE0FFBF0203020C5390E6BAE0FFBF0105751001805D5B
:200BF60090E6BAE0FFBF060280537582002290E6BAE0703C90E6BCE0F582120A7CAE82AF61
:200C160083EE4F7003F582228E828F83E0FD4305018E828F83EDF090E6BCE0FF30E703433D
:200C3600071053071F90E683EFF074204FF0800D7582002290E6B9E0F5820202DA75820161
:200C560022D310AF01C3C0D0E582FF600E75111C75123E75135875143E800C7511587512A3
:200C76003E75131C75143ED0D092AF2290E6B57401F090E6BBE0FFBF01028019BF02028074
:200C960029BF03028033BF0603020D43BF0703020D58020D677E007F3E8F0690E6B3EEF007
:200CB6007E007F3E90E6B4EEF022AF1290E6B3EFF0AE1190E6B4EEF0227D947E3E7F8090AB
:200CD600E6BAE0F5677B008B020BEAB5670280428D008E018F028D828E838FF01214FD28AE
:200CF600F8E439F9880589068A0774012DF9E43EFA8F0489828A838CF01214FDF9B903026B
:200D160080067D007E007F00ED4E6006C3E5679B50B5ED4E600D8E0790E6B3EFF090E6B4FE
:200D3600EDF02290E6A0E0FF74014FF0227E127F3E8F0690E6B3EEF07E127F3E90E6B4EE85
:1B0D5600F022AF1490E6B3EFF0AE1390E6B4EEF02290E6A0E0FF74014FF022EF
:200066007900E94400601B7A00901676780175923CE493F2A308B800020592D9F4DAF27594
:0200860092FFE7
:1B0D710020F71130F6138883A88220F509F6A8837583002280FEF280F5F02281
:203F000002049C000215FC0002158B000215F5000204C3000205120002158800020D970017
:203F2000020D9900020D9A00020D9B00020D9E000215FB000215FD00020D8C00020D8E007B
:203F400002158D00020D9700021587000215890002158A0002158C0002158E000215F400E5
:203F60000214E400020D9700020D9700020D9700020D9800020D9C00020D9F00020DA100A5
:203F8000020D9D00020DA000020DA200020EDE00020D8F00020D9100020D9300020D9500A3
:183FA000020D9000020D9200020D9400020D9600020D8D000215FA00D4
:010D8C003234
:010D8D003233
:010D8E003232
:010D8F003231
:010D90003230
:20008E007800E84400600A790075923CE4F309D8FC7801E84400600C7901903C00E4F0A306
:0400AE00D8FCD9FAA7
:010D9100322F
:010D9200322E
:010D9300322D
:010D9400322C
:010D9500322B
:010D9600322A
:010D97003229
:010D98003228
:010D99003227
:010D9A003226
:010D9B003225
:010D9C003224
:010D9D003223
:010D9E003222
:010D9F003221
:010DA0003220
:010DA100321F
:010DA200321E
:200DA300D310AF01C3C0D085821585831685F017F51890E600E05418C423541FFB70047B71
:200DC30001801690E600E05418C423541FFABA01047A0280027A048A03D2CDD2CC8B6775F7
:200DE3006800756900756A009071B075F00BE4C00312151985156785166885176985186AB3
:200E030012158FA882A983AAF0FFD00308B8000909B900050ABA00010FEFC313EA13FAE94E
:200E230013F9E813F874FFC398F874FF99FF8FCB7900EB60027401FFEF28F5CAD2CAC29F78
:200E4300D29EC29DD29C438780D299D0D092AF223098FD859982C29822AF8210990280FB62
:200E63008F9922AF82BF0A0A75820DC007120E5CD0078F82C007120E5CD007BF0D0675820F
:050E83000A020E5C22D2
:200E8800AE82AF8390E600E05418C423541FFD70057CB1FD801C90E600E05418C423541F78
:200EA800FBBB01067A617B0180047AC27B028A048B058C678D68156774FFB567021568E564
:160EC80067456870F1EE24FFFAEF34FFFB8A068B07EA4B70DD22B1
:010EDE0032E1
:200EDF00C01A85811A120E66D01A2285825C85835D85F05EE4F559F55AF55B85195F900E60
:200EFF00DF020FDAC01A85811AE51A24FBFF8F5FE4F559F55AF55BE51A24FBF8865C0886AD
:0D0F1F005D08865E900EDF120FDAD01A22F8
:200F2C00AF82C04FC050C051120F398007C04DC04E8F82221581158115810557E4B5570205
:200F4C00055822AF8274302FFF24C6500A74072FFF3002034307208F82020F2CE582FFC4FF
:200F6C00540FF582C007120F4FD007740F5FF582020F4F85826785526885536985546A850E
:200F8C00556BAA56756C20EA2AFAE56B235401FF8A064EFAE5682568F568E56933F569E5DC
:200FAC006A33F56AE56B33F56BC3EA95674008EAC39567FA436801E56C14FF8F6C70C885EA
:200FCC006852856953856A54856B558A562285824D85834E85594F855A50855B51E4F55719
:200FEC00F558AD5CAE5DAF5E8D828E838FF01214FDFC74012DF55CE43EF55D8F5EECFF700A
:20100C00030214DDBF250280030214D5C203C204C205C206C207C208C209C20A75600075EC
:20102C0061007CFFAA5CAB5DAE5E8A828B838EF01214FDFFA3AA82AB838A5C8B5D8E5EBF7E
:20104C0025078F82120F2C80998F6374D025635026E56324C64020BCFF12E56175F00AA4F5
:20106C00FD2F24D0F56170C2D20480BEEC75F00AA42F24D0FC80B3BF2E07BCFFAD7C0080FF
:20108C00A98F05BD6100400CED248540075307DFD2028002C202BF2002806DBF2B028063D0
:2010AC00BF2D028059BF42028063BF43028068BF440302127FBF4603021295BF4803021025
:2010CC0036BF490302127FBF4A03021036BF4C028040BF4F03021286BF5003021214BF5318
:2010EC0002805CBF5403021036BF550302128BBF5803021290BF5A03021036021299D2034E
:20110C00021036D205021036D206021036D208021036D20902103630080CE55F14FE8E5F70
:20112C008E0187078011E55F24FEFE8E5F8E018705098706198D078F82120F2C0212A2E54D
:20114C005F24FDFE8E5F8E01870309870509870619198B528D538E548B828D838EF0C004A4
:20116C001214E5AD82AE83D004BCFF028D0420032AC3ED95615024E561C39DF561AE618ED6
:20118C00031EEB6014758220C006C005C004120F2CD004D005D00680E68E618C0685528251
:2011AC008553838554F01214FDFCFF602F8E041EC374808CF063F08095F050208F82C006D0
:2011CC00C005120F2CD005D006AA52AB53AC540ABA00010B8A528B538C5480C12003030279
:2011EC0012A2C3ED956140030212A2E561C39DF561AE618E041EEC70030212A0758220C0EB
:20120C0006120F2CD00680EBE55F24FDFC8C5F8C01870209870309870419198A528B538C2D
:20122C0054AC54BC800040047F438014BC600040047F50800BBC400040047F4980027F585D
:20124C008F82C007120F2C75823A120F2C758230120F2C758278120F2CD007BF4902800B43
:20126C00BF50028006855382120F68855282120F688023D20775600A801C75600880177526
:20128C00600A8012756010800DD20A80098F82120F2C80028E61300A5CE55F24FCFE8E5FBB
:2012AC008E0187020987030987040987061919198A528B538C548E5575526B7553167554AC
:2012CC008085526485536585546674012564FAE43565FCAE668A528C538E54856482856553
:2012EC00838566F01214FDFEFF7003020FEE8F82120F2C80CCE5607003020FEE7562723018
:20130C00082DE55F14FC8C5F8C01E7FA3395E0FBFCFE8A528B538C548E55200766AA527BC1
:20132C00007C007E008A528B538C548E558054300921E55F24FCFE8E5F8E01870209870302
:20134C000987040987061919198A528B538C548E558030E55F24FEFE8E5F8E0187040987E4
:20136C000619EE3395E0FBFA8C528E538B548A55200710AA52AB537C007E008A528B538CC9
:20138C00548E55300722E55530E71BC3E49552FAE49553FBE49554FCE49555FE8A528B53A7
:2013AC008C548E558002C207D20BA9627E00755600856082C006C001120F7FD001D006208D
:2013CC000B0BE556C4FCE7FB4CF7198002A7560EB20BE55245534554455570D289628E05A6
:2013EC00E5617003756101200424200321ED04FEAC61C3EE9C5015758220C006C005C004B1
:20140C00120F2CD004D005D0061C80E68C6130070E75822DC005120F2CD00515618023ED2F
:20142C00602030050E75822BC005120F2CD0051561800F30060C758220C005120F2CD0058F
:20144C001561200322AE618E041EC3ED9C502B3004047C3080027C208C82C006C005120F83
:20146C002CD005D00680E0C3ED95615008E561C39DF561800775610080028E61A9628D06C3
:20148C008E051EED6026B20B200B0A09E7C4540FFD8D5680078705740F5DF556855682C0D8
:2014AC0006C001120F4FD001D00680D4200303020FEEAE618E051EED7003020FEE75822093
:1814CC00C006120F2CD00680EB8F82120F2C020FEE8557828558832277
:0B166B003C4E4F20464C4F41543E00C7
:0114E40032D5
:1814E500AA82AB831214FD6003A380F8C3E5829AF582E5839BF583221C
:0D0059007581721215F6E5826003020056F3
:1C14FD0020F71430F6148883A88220F507E6A88375830022E280F7E49322E022FE
:20151900AAF0FBE5828567F0A4FCADF0E5838567F0A42DFDE435F0FEE5828568F0A42DFD72
:20153900E5F03EFEE433FFEA8567F0A42EFEE5F03FFFE5838568F0A42EFEE5F03FFFE58233
:201559008569F0A42EFEE5F03FFFEB8567F0A42FFFEA8568F0A42FFFE5838569F0A42FFF67
:0E157900E582856AF0A42F8EF08D838C82228D
:011587003231
:011588003230
:01158900322F
:01158A00322E
:01158B00322D
:01158C00322C
:01158D00322B
:01158E00322A
:20158F00FB7A20E4FCFDFEFFE5822582F582E58333F583E5F033F5F0EB33FB4017DAE98095
:2015AF0042E5822582F582E58333F583E5F033F5F0EB33FBEC33FCED33FDEE33FEEF33FFC4
:2015CF00EC9567ED9568EE9569EF956A4013EC9567FCED9568FDEE9569FEEF956AFF438296
:0515EF0001DABEEB2251
:0115F40032C4
:0115F50032C3
:0415F60075820022D8
:0115FA0032BE
:0115FB0032BD
:0115FC0032BC
:0115FD0032BB
:00000001FF
