:040000000201B9320E
:01000B0032C2
:0100130032BA
:01001B0032B2
:0100230032AA
:01002B0032A2
:01003300329A
:01003B003292
:01004300328A
:01004B003282
:01005300327A
:01005B003272
:01006300326A
:03006B0002045933
:03007300020D4635
:03007B000205215A
:03008300020D4328
:03008B00020480EC
:030093000204CF95
:03009B0002051E3D
:0300A300020D70DB
:0300AB00020D71D2
:0300B300020D72C9
:0300BB00020D75BE
:0300C300020D45E6
:0300CB00020D62C1
:0300D300020D63B8
:0300DB00020D65AE
:0300E300020918F7
:0300EB0002155E9D
:0300F30002051FE4
:0300FB00020520DB
:03010300020917D7
:03010B00020919CD
:0301130002091AC4
:03011B000214BB10
:03012300020D6E5C
:03012B00020D734F
:03013300020D7644
:03013B00020E5D54
:03014300020D6F3B
:03014B00020D742E
:03015300020D7723
:03015B00020E5E33
:03016300020EB5D4
:03016B00020D661C
:03017300020D6812
:03017B00020D6A08
:03018300020D6CFE
:03018B00020D67FB
:03019300020D69F1
:03019B00020D6BE7
:0301A300020D6DDD
:0301AB00020D64DE
:0301B300020D44F6
:03021200750B0168
:030227000201B61B
:0301B60002022A18
:20022A0090E60BE4F0C200C20190E60B7403F090E680E0FF740A4FF09005DC120E5F90E6FA
:20024A0080E0FF74F75FF090E600E0FF74E75F4410F090E100E4F5F0120D78E500D2E89028
:20026A00E668E0FF74084FF090E65CE0FF74014FF0E0FF74104FF0E0FF74204FF0D2AF3022
:20028A0000FD12091BC20080F675820022AF8290E6BBE0FD7E0090E6BAE07B004206EB4213
:2002AA000590E6BFE0FB7C0090E6BEE07A004204EA42038F017A00C007C006C005C004C0C0
:2002CA0003C004C003C006C005C001C00274C8C0E07415C0E07480C0E0120EDAE58124F768
:2002EA00F581D003D004D005D006D007BFB10280030203F390E6B8E0FFBF40028074BFC0E7
:20030A000280030203D6EC4B70030203DAC374409CE49B50067A407F0080048C028B079095
:20032A00E6A0E0FF20E1F88A467547007548407549E7754A008E448D45758251C006C005F1
:20034A00C004C003C0021208B2D002D003D004D005D00690E68AE4F00000000090E68BEA9B
:20036A00F07F00ECC39AFCEB9FFBEA2EFEEF3DFD8094EC4B605A90E68BE4F090E6A0E0FF2C
:20038A0020E1F890E68BE0FF8F39753A00753B40753CE7753D008E378D38758251C007C070
:2003AA0006C005C004C00312081CE582D003D004D005D006D0077003F582227A00EF2EFE7A
:2003CA00EA3DFDECC39FFCEB9AFB80A67582002274F5C0E07415C0E07480C0E0120EDA1511
:2003EA0081158115817582012275820022AD19AE1AAF1B8D828E838FF0E4120D47758201DA
:20040A0022AE0A7F00C006C00774FDC0E07415C0E07480C0E0120EDAE58124FBF581758232
:20042A000122850B8222AF828F057E00C007C005C006741EC0E07416C0E07480C0E0120EB6
:20044A00DAE58124FBF581D0078F0B75820122C0E0C082C083C007C0D075D000D200AF915F
:20046A0074EF5FF59190E65D7401F0D0D0D007D083D082D0E032C022C0E0C0F0C082C0833D
:20048A00C007C006C005C004C003C002C001C000C0D075D000758200120C29AF9174EF5F21
:2004AA00F59190E65D7410F0D0D0D000D001D002D003D004D005D006D007D083D082D0F0C4
:2004CA00D0E0D02232C022C0E0C0F0C082C083C007C006C005C004C003C002C001C000C0AB
:2004EA00D075D000758201120C29AF9174EF5FF59190E65D7420F0D0D0D000D001D002D0DC
:14050A0003D004D005D006D007D083D082D0F0D0E0D022324B
:2015C80048616E646C652056656E646F7220436F6D6D616E6420253032782C206164647244
:2015E8002025642C206C656E2025640A00416C6C204F4B0A00486F73742077616E74732014
:20160800746F2073657420696E746572666163653A2025640A00686F73742077616E7473AA
:0D16280020636F6E6669673A2025640A0032
:203E000012010002FFFFFF40192A41540100000001010A060002FFFFFF40010009023C00DE
:203E200001010080320904000006FFFFFF000705010200020007058102000200070502020C
:203E400000020007050402000200070586020002000705880200020009023C000101008055
:203E6000320904000006FFFFFF00070501024000000705810240000007050202400000078B
:203E8000050402400000070586024000000705880240000004030904180345004500500024
:123EA00052004F004D0020004C006F0061006400000082
:01051E0032AA
:01051F0032A9
:0105200032A8
:0105210032A7
:20052200AF82E5282523F52DE5293524F52E752F02903C00E4F0EF2FFF903C00E0E0600434
:200542007582002290E678E0FB74804BF0E0FB30E20C90000AC007120E5FD00780DB90E607
:2005620079EFF090E678E0FB20E007903C00E0E060F1903C00E0E060047582002290E6787D
:20058200E0FB20E2B490E678E0FB20E13B90E678E0FB74404BF090E678E0FB30E607903C59
:2005A20000E0E060F1903C00E0E0600475820022E52F14FB8B2F7003F5822290000AC007D5
:2005C200120E5FD00702053B7A007B00C3EA952DEB952E400302066CC3EA9523EB9524505F
:2005E20016EA2525F8EB3526F9AC27888289838CF01214D4FC801DEAC39523F8EB9524F986
:20060200E8252AF8E9352BF9AE2C888289838EF01214D4FC90E679ECF00ABA00010B90E6F2
:2006220078E0FE20E007903C00E0E060F1903C00E0E060047582002290E678E0FE30E20394
:2006420002053B90E678E0FE30E1030205CE90E678E0FF74404FF090E678E0FF30E6079067
:200662003C00E0E060F17582002290E678E0FF74404FF090E678E0FF30E607903C00E0E0DC
:2006820060F1903C00E0E060047582002275820122AF82903C00E4F0EF2FFF430701740136
:2006A200B53008E4B5310474018001E4FE903C00E0E06004758200227C007D0090E678E0D5
:2006C200FB74804BF0E0FB30E21090000AC007C006120E5FD006D00780D390E679EFF090ED
:2006E200E678E0FB20E007903C00E0E060F1903C00E0E060047582002290E678E0FB20E207
:20070200AC90E678E0FB20E11C90E678E0FB74404BF090E678E0FB30E607903C00E0E060BB
:20072200F175820022EE600990E678E0FB74204BF090E679E0E4F535F53674012535F8E40B
:200742003536F9C3E89530E99531506A90E678E0F920E007903C00E0E060F1903C00E0E023
:2007620060047582002290E678E0F930E2030206AF74022535F8E43536F9E8B5300DE9B5DF
:20078200310990E678E0F9742049F0A835A9360535E4B535020536AC35AD36E82532F8E9A4
:2007A2003533F9AB3490E679E0FA888289838BF0120D4702073C90E678E0FB20E007903C56
:2007C20000E0E060F1903C00E0E060047582002290E678E0FB30E2030206AF90E678E0FF9B
:2007E20074404FF0EC2532FCED3533FDAF3490E679E0FE8C828D838FF0120D4790E678E0F2
:20080200FF30E607903C00E0E060F1903C00E0E06004758200227582012285823EE4F5425A
:20082200F543AB37AC38C3E5429539E543953A40030208AE7A0090E678E0FF30E4067A0132
:200842008C078F3F8A070AEF243FF98B06A7068A070AEF243FF9AE42AF430542E4B5420225
:200862000543EE253BFEEF353CFFAD3D8E828F838DF01214D4F78A2375240075253F75264F
:2008820000752740E4F528F529F52AF52BF52C853E82C004C003120522E582D003D0047078
:2008A20003F582220BBB00010C02082875820122AF827E0090E678E0FD30E4067E01AD4576
:2008C2008D4B8E050EED244BF9AC44A7048E2375240075254B752600752740E4F528F529E8
:2008E200F52AF52BF52C8F82C007120522E582D0077003F5822285463085473185483285BF
:150902004933854A348F82120693E5827003F582227582012218
:0109170032AD
:0109180032AC
:0109190032AB
:01091A0032AA
:0601E800E478FFF6D8FDEB
:12021500750D00750E00750F5875103E75111C75123ECC
:20091B0090E6B9E0FF24F45003020A21EF240A83F582EF241083F583E4734D6321792121FE
:20093B008F219FB6CE0209090A090A0A090A0909090A120A9BE5826003020A3790E6A0E09C
:20095B00FF74014FF0020A37120B28E5826003020A3790E6A0E0FF74014FF0020A37120B2B
:20097B009EE5826003020A3790E6A0E0FF74014FF0020A37120293E5826003020A37120CF3
:20099B0054020A3712042CAF8290E740EFF090E68AE4F090E68B04F0020A3790E6BAE0F58B
:2009BB0082120430E582707490E6A0E0FF74014FF0806990E6BCE0FF75190C751A00751BAD
:2009DB00408F821203F7E582700B90E6A0E0FF74014FF0804790E740E50CF090E68AE4F0E1
:2009FB0090E68B04F0803590E6BCE0FF90E6BAE0F50A8F8212040BE582702190E6A0E0FFF3
:200A1B0074014FF0801690E6B9E0F582120297E582700990E6A0E0FF74014FF090E6A0E0C1
:200A3B00FF74804FF022AF828F0653067FEE24F75003020A97EE240A83F582EE240D83F5FD
:200A5B0083E473707487978B978F97930A0A0A0A0A0A0A0A0A90E6A022EF30E7067EA27F87
:200A7B00E680047EA17FE68E828F832290E6A32290E6A42290E6A52290E6A6229000002285
:200A9B0090E6B8E0FFBF8002801FBF81028005BF8273803490E740E4F090E741F090E68AEC
:200ABB00F090E68B7402F08060E50E25E0FFE50D420790E740EFF090E741E4F090E68AF0A0
:200ADB0090E68B7402F0804190E6BCE0F582120A41AE82AF838E048F05EE4F7003F582221C
:200AFB008C828D83E0FC30E0047F0180027F0090E740EFF090E741E4F090E68AF090E68B39
:200B1B007402F08004758200227582012290E6B8E0FF6005BF025F801B90E6BAE0FFBF01A1
:200B3B0005750E00805990E6BAE0FFBF0602804F7582002290E6BAE0703890E6BCE0F5823A
:200B5B00120A41AE82AF83E0FD5305FE8E828F83EDF090E6BCE0FF53070F90E6BCE0548029
:200B7B00C423541FFE90E6832FF0E0FF74204FF0800D7582002290E6B9E0F58202029775FC
:200B9B0082012290E6B8E0FF6005BF0274802590E6BAE0FFBF0202807190E6BAE0FFBF01B7
:200BBB0005750E01806490E6BAE0FFBF0602805A7582002290E6BAE0704390E6BCE0F58298
:200BDB00120A41AE82AF83EE4F7003F582228E828F83E0FD4305018E828F83EDF090E6BC79
:200BFB00E0FF53070F90E6BCE05480C423541FFE90E6832FF0E0FF74204FF0800D75820006
:200C1B002290E6B9E0F58202029775820122AF82D20210AF02C202EF600E750F1C75103E12
:200C3B0075115875123E800C750F5875103E75111C75123EA20292AF2290E6B57401F0903D
:200C5B00E6BBE0FFBF01028019BF02028029BF03028033BF0603020D15BF0703020D2A02CB
:200C7B000D397E007F3E8F0690E6B3EEF07E007F3E90E6B4EEF022AF1090E6B3EFF0AE0F53
:200C9B0090E6B4EEF0227D947E3E7F8090E6BAE0F5197B008B020BEAB5190280428D008E7B
:200CBB00018F028D828E838FF01214D428F8E439F9880589068A0774012DF9E43EFA8F04C1
:200CDB0089828A838CF01214D4F9B9030280067D007E007F00ED4E6006C3E5199B50B5EDC5
:200CFB004E600D8E0790E6B3EFF090E6B4EDF02290E6A0E0FF74014FF0227E127F3E8F06AB
:200D1B0090E6B3EEF07E127F3E90E6B4EEF022AF1290E6B3EFF0AE1190E6B4EEF02290E612
:080D3B00A0E0FF74014FF0225B
:2001C6007900E94400601B7A00901640780175923CE493F2A308B800020592D9F4DAF27569
:0201E60092FF86
:010D4300327D
:010D4400327C
:010D4500327B
:010D4600327A
:1B0D470020F71130F6138883A88220F509F6A8837583002280FEF280F5F022AB
:010D6200325E
:010D6300325D
:010D6400325C
:010D6500325B
:03004300023F0079
:203F000002045900020D460002052100020D4300020480000204CF0002051E00020D6F0075
:203F2000020D7000020D7100020D7200020D7500020D4500020D6200020D6300020D6500D2
:203F400002091800020D6F0002155E0002051F0002052000020917000209190002091A0093
:203F60000214BB00020D6F00020D6F00020D6F00020D6E00020D7300020D7600020E5D0005
:203F8000020D7400020D7700020E5E00020EB500020D6600020D6800020D6A00020D6C0005
:183FA000020D6700020D6900020D6B00020D6D00020D6400020D44005F
:010D6600325A
:010D67003259
:2001EE007800E84400600A790075923CE4F309D8FC7801E84400600C7901903C00E4F0A3A5
:04020E00D8FCD9FA45
:010D68003258
:010D69003257
:010D6A003256
:010D6B003255
:010D6C003254
:010D6D003253
:010D6E003252
:010D6F003251
:010D70003250
:010D7100324F
:010D7200324E
:010D7300324D
:010D7400324C
:010D7500324B
:010D7600324A
:010D77003249
:200D7800D310AF01C3C0D085821385831485F015F51690E600E05418C423541FFB70047BA4
:200D980001801690E600E05418C423541FFABA01047A0280027A048A03D2CDD2CC8B197570
:200DB8001A00751B00751C009071B075F00BE4C0031214F085131985141A85151B85161C32
:200DD80012155FA882A983AAF0FFD00308B8000909B900050ABA00010FEFC313EA13FAE9AA
:200DF80013F9E813F874FFC398F874FF99FF8FCB7900EB60027401FFEF28F5CAD2CAC29FA4
:200E1800D29EC29DD29C438780D299D0D092AF223098FD859982C29822AF8210990280FB8D
:200E38008F9922AF82BF0A0A75820DC007120E31D0078F82C007120E31D007BF0D06758290
:050E58000A020E312228
:010E5D003262
:010E5E003261
:200E5F00AE82AF8390E600E05418C423541FFD70057CB1FD801C90E600E05418C423541FA1
:200E7F00FBBB01067A617B0180047AC27B028A048B058C198D1A151974FFB51902151AE513
:160E9F0019451A70F1EE24FFFAEF34FFFB8A068B07EA4B70DD2276
:010EB500320A
:200EB600C018858118120E3BD0182285825C85835D85F05EE4F559F55AF55B85175F900EBC
:200ED600B6020FB1C018858118E51824FBFF8F5FE4F559F55AF55BE51824FBF8865C088630
:0D0EF6005D08865E900EB6120FB1D0182276
:200F0300AF82C04FC050C051120F108007C04DC04E8F82221581158115810557E4B5570257
:200F2300055822AF8274302FFF24C6500A74072FFF3003034307208F82020F03E582FFC450
:200F4300540FF582C007120F26D007740F5FF582020F2685821985521A85531B85541C85C1
:200F6300551DAA56751E20EA2AFAE51D235401FF8A064EFAE51A251AF51AE51B33F51BE575
:200F83001C33F51CE51D33F51DC3EA95194008EAC39519FA431A01E51E14FF8F1E70C885D1
:200FA3001A52851B53851C54851D558A562285824D85834E85594F855A50855B51E4F5577A
:200FC300F558AD5CAE5DAF5E8D828E838FF01214D4FC74012DF55CE43EF55D8F5EECFF705C
:200FE300030214B4BF250280030214ACC204C205C206C207C208C209C20AC20B7560007560
:2010030061007CFFAA5CAB5DAE5E8A828B838EF01214D4FFA3AA82AB838A5C8B5D8E5EBFD0
:2010230025078F82120F0380998F6374D025635026E56324C64020BCFF12E56175F00AA447
:20104300FD2F24D0F56170C2D20580BEEC75F00AA42F24D0FC80B3BF2E07BCFFAD7C008027
:20106300A98F05BD6100400CED248540075307DFD2038002C203BF2002806DBF2B028063F7
:20108300BF2D028059BF42028063BF43028068BF4403021256BF460302126CBF48030210A0
:2010A3000DBF4903021256BF4A0302100DBF4C028040BF4F0302125DBF50030211EBBF530F
:2010C30002805CBF540302100DBF5503021262BF5803021267BF5A0302100D021270D20443
:2010E30002100DD20602100DD20702100DD20902100DD20A02100D30090CE55F14FE8E5F62
:201103008E0187078011E55F24FEFE8E5F8E018705098706198D078F82120F03021279E5C8
:201123005F24FDFE8E5F8E01870309870509870619198B528D538E548B828D838EF0C004CD
:201143001214BCAD82AE83D004BCFF028D0420042AC3ED95615024E561C39DF561AE618E27
:20116300031EEB6014758220C006C005C004120F03D004D005D00680E68E618C06855282A3
:201183008553838554F01214D4FCFF602F8E041EC374808CF063F08095F050208F82C00622
:2011A300C005120F03D005D006AA52AB53AC540ABA00010B8A528B538C5480C120040302CA
:2011C3001279C3ED95614003021279E561C39DF561AE618E041EEC7003021277758220C08F
:2011E30006120F03D00680EBE55F24FDFC8C5F8C01870209870309870419198A528B538C80
:2012030054AC54BC800040047F438014BC600040047F50800BBC400040047F4980027F5886
:201223008F82C007120F0375823A120F03758230120F03758278120F03D007BF4902800B10
:20124300BF50028006855382120F3F855282120F3F8023D20875600A801C756008801775A0
:20126300600A8012756010800DD20B80098F82120F0380028E61300B5CE55F24FCFE8E5F0B
:201283008E0187020987030987040987061919198A528B538C548E5575523575531675540B
:2012A3008085526485536585546674012564FAE43565FCAE668A528C538E5485648285657C
:2012C300838566F01214D4FEFF7003020FC58F82120F0380CCE5607003020FC575626C30EB
:2012E300092DE55F14FC8C5F8C01E7FA3395E0FBFCFE8A528B538C548E55200866AA527BE9
:20130300007C007E008A528B538C548E558054300A21E55F24FCFE8E5F8E0187020987032A
:201323000987040987061919198A528B538C548E558030E55F24FEFE8E5F8E01870409870D
:201343000619EE3395E0FBFA8C528E538B548A55200810AA52AB537C007E008A528B538CF1
:20136300548E55300822E55530E71BC3E49552FAE49553FBE49554FCE49555FE8A528B53CF
:201383008C548E558002C208D20CA9627E00755600856082C006C001120F56D001D00620DD
:2013A3000C0BE556C4FCE7FB4CF7198002A7560EB20CE55245534554455570D289628E05CD
:2013C300E5617003756101200524200421ED04FEAC61C3EE9C5015758220C006C005C004D8
:2013E300120F03D004D005D0061C80E68C6130080E75822DC005120F03D00515618023EDAA
:20140300602030060E75822BC005120F03D0051561800F30070C758220C005120F03D00508
:201423001561200422AE618E041EC3ED9C502B3005047C3080027C208C82C006C005120FAA
:2014430003D005D00680E0C3ED95615008E561C39DF561800775610080028E61A9628D0615
:201463008E051EED6026B20C200C0A09E7C4540FFD8D5680078705740F5DF556855682C0FF
:2014830006C001120F26D001D00680D4200403020FC5AE618E051EED7003020FC575822036
:1814A300C006120F03D00680EB8F82120F03020FC5855782855883221B
:0B1635003C4E4F20464C4F41543E00FD
:0114BB0032FE
:1814BC00AA82AB831214D46003A380F8C3E5829AF582E5839BF583226E
:0D01B90075816C1215C4E58260030201B669
:1C14D40020F71430F6148883A88220F507E6A88375830022E280F7E49322E02227
:2014F000AAF0FBE5828519F0A4FCADF0E5838519F0A42DFDE435F0FEE582851AF0A42DFD86
:20151000E5F03EFEE433FFEA8519F0A42EFEE5F03FFFE583851AF0A42EFEE5F03FFFE582F8
:20153000851BF0A42EFEE5F03FFFEB8519F0A42FFFEA851AF0A42FFFE583851BF0A42FFFC8
:0E155000E582851CF0A42F8EF08D838C822204
:01155E00325A
:20155F00FB7A20E4FCFDFEFFE5822582F582E58333F583E5F033F5F0EB33FB4017DAE980C5
:20157F0042E5822582F582E58333F583E5F033F5F0EB33FBEC33FCED33FDEE33FEEF33FFF4
:20159F00EC9519ED951AEE951BEF951C4013EC9519FCED951AFDEE951BFEEF951CFF438236
:0515BF0001DABEEB2281
:0415C400758200220A
:00000001FF
