:060000000212A402006BD5
:03000B0002006B85
:0300130002006B7D
:03001B0002006B75
:0300230002006B6D
:03002B0002006B65
:0300330002006B5D
:03003B0002006B55
:0300430002006B4D
:03004B0002006B45
:0300530002006B3D
:03005B0002006B35
:0300630002006B2D
:01006B003262
:1000800002006B0002006B0002006B0002006B00BC
:1000900002006B0002006B0002006B0002006B00AC
:1000A00002006B0002006B0002006B0002006B009C
:0800B00002006B0002006B006E
:1001000002006B0002006B0002006B0002006B003B
:1001100002006B0002006B0002006B0002006B002B
:1001200002006B0002006B0002006B0002006B001B
:1001300002006B0002006B0002006B0002006B000B
:1001400002006B0002006B0002006B0002006B00FB
:1001500002006B0002006B0002006B0002006B00EB
:1001600002006B0002006B0002006B0002006B00DB
:1001700002006B0002006B0002006B0002006B00CB
:0312AF000212B573
:0312C8000212B25D
:0312B200020485AE
:10018000C200E4F508F509F50AD201750B00750CFB
:10019000001207D21207CF1206D875CB6375CAC0FA
:1001A000758E0075C804D2AFD2B0D2B190E6047497
:1001B00080F00090E60B7403F00090E61074A0F05D
:1001C0000090E61174A0F00090E618E4F00090E6CC
:1001D000047402F00090E61274A2F00090E619E4B4
:1001E000F00090E6047404F00090E61374A0F000B0
:1001F00090E61AE4F00090E6047406F00090E6142D
:1002000074E2F00090E61BE4F00090E6047408F05D
:100210000090E61574E0F00090E604E4F00090E64B
:100220000BE4F0000090E6917480F00090E6957485
:1002300080F00090E6917480F00090E6957480F074
:1002400022AF82850C827583E0EFF0050C0509E48E
:10025000B50902050A22200001221207CE90E6A26B
:10026000E0FF30E1030202EEE509450A60687EC066
:100270007FE78F9D7EC07FE77F008E9E90E67C7437
:1002800031F07460F0C3743E9509E4950A50107F14
:100290003EE50924C2F509E50A34FFF50A8007AFF7
:1002A00009E4F509F50A8F067C007DE08D9A850B3F
:1002B0009B8F051FED601090E67BE090E67CF07C64
:1002C000007DE08D9A80EA859B0B0090E68F74029A
:1002D0002EF0D2CF801830CF1590E7C07431F09057
:1002E000E7C17460F00090E68F7402F0C2CFE5AA17
:1002F00030E00122C3E50994C1E50A9400400122DF
:1003000090E690E0FE7F0090E691E0FD7C00EF4DEE
:10031000F50DEE4CF50E7C007DF08D9A7C007DF0A5
:100320008C9B7C007D00C3EC950DED950E40030287
:1003300003FEE50870030203BDE50DC39CFAE50E5C
:100340009DFBA8087900C3E89AE99B5004880289BC
:10035000038A01E508C399F508EA2CFCEB3DFD3062
:10036000012C8A008B018806890718B8FF0119EE55
:100370004F60B390E67BE0F582C005C004C001C0C9
:100380000012084FD000D001D004D00580D88A06D2
:100390008B078E028F031EBEFF011FEA4B60879002
:1003A000E67BE0F582C007C006C005C00412093F25
:1003B000120241D004D005D006D00780D590E67B4C
:1003C000E0FFA2E69202B39201EF30E707743F5FCD
:1003D000F508802230010F8F82C005C0041207FF8C
:1003E000D004D00580108F82C005C00412084112CD
:1003F0000241D004D0050CBC00010D020326009080
:10040000E6917480F02290E6B8E0FF20E70C90E6D9
:10041000B9E07002D2007582012290E6B9E0FFBF18
:10042000902B90E6BCE025E0547FFF2400F582E4A9
:100430003418F583E0FE90E740F0EF042400F582E5
:10044000E43418F583E0FF90E741F0800C90E7403A
:100450007436F090E7417483F090E68AE4F090E619
:10046000BEE0FFBF0200500790E6BEE0FF80027FC3
:100470000290E68BEFF075820122300303120DF239
:1004800012025680F5C2AF1201801204E21211C6A8
:0B049000120D59D2AF120C4702047A83
:10E100001201100100000040C016AD0600FF010220
:10E1100003010A061001FFFFFF4001000902200071
:10E12000010100804B0904000002FFFFFF02070508
:10E1300081024000000705020240000012011001A8
:10E1400000000040C016AD0600FF010203010A06F0
:10E150001001FFFFFF4001000902200001010080C3
:10E160004B0904000002FFFFFF0207058102400087
:10E1700000070502024000000482E186E194E1B854
:01E18000E1BD
:10E18200040309040E034E0075006D006100740063
:10E192006F0024034F0070007300690073002000B9
:10E1A20028004A0054004100470020004D006F0043
:10E1B2006400650029002203300031003200330080
:10E1C2003400350036003700380039006100620043
:08E1D2006300640065006600B3
:10049B00AF82E50F54FEFEB50F02802A8F048C0548
:1004AB00E4FC6210ED6211EE2400F582E43418F5E1
:1004BB0083E0FE7D006210ED6211E51033C5113350
:1004CB00C51192E0F510AE0F050FEE2400F582E496
:1004DB003418F583EFF022750F007510AA7511AA69
:1004EB0075820012049B75820012049B7F00EF241F
:1004FB0008F582E434E1F583E0F582C00712049B32
:10050B00D0070FC3EF6480948640E37F00EF242372
:10051B00F582E434E1F583E0F582C00712049BD049
:10052B00070FC3EF6480948240E375821C12049B17
:10053B0075820012049B7F00EF2402F582E434E104
:10054B00F583E0F582C00712049BD0070FC3EF645D
:10055B0080948240E37486250FFFF582C007120456
:10056B009B90E186E0F58212049BD00790E186E038
:10057B002FFFF582C00712049B90E194E0F58212E5
:10058B00049BD00790E194E02FF58212049B90E13D
:10059B00B8E0F58212049B7F0090E186E0FEC3EF8A
:1005AB0064808EF063F08095F05017EF2486F5820F
:1005BB00E434E1F583E0F582C00712049BD0070F0A
:1005CB0080D77F0090E194E0FEC3EF64808EF063F0
:1005DB00F08095F05017EF2494F582E434E1F58325
:1005EB00E0F582C00712049BD0070F80D77F0090E5
:1005FB00E1B8E0FEC3EF64808EF063F08095F050BD
:10060B0017EF24B8F582E434E1F583E0F582C007F7
:10061B0012049BD0070F80D77F00EF240EF582E4E6
:10062B0034E1F583E0F582C00712049BD0070FC3BA
:10063B00EF6480948440E37482250F400875820038
:10064B0012049B80F2AE1090187EEEF0AF11901852
:04065B007FEFF0221B
:0512A400901880E4F049
:10065F00E582FF24F0500475823F22EF24F6500804
:10066F008F0674572EF5822274302FF58222E58281
:10067F0075F004A4FFAEF024BAFCEE34E1FDE512F0
:10068F00C4540FF582C007C006C005C00412065F30
:10069F00AB82D004D005D006D0078C828D83EBF0CF
:1006AF0074022FFFE43EFEEF24BAFFEE34E1FE7436
:1006BF000F5512F582C007C00612065FAD82D00635
:1006CF00D0078F828E83EDF02290E1BA7466F075B9
:1006DF0015807516187513F8751401758251120B64
:1006EF00EA901880E0F51275820012067D7515806C
:1006FF007516187513F9751401758251120BEA905E
:10070F001880E0F51275820112067D751580751639
:10071F00187513FA751401758251120BEA9018802F
:10072F00E0F51275820212067D7515807516187523
:10073F0013FB751401758251120BEA901880E0F5C6
:10074F001275820312067D7515807516187513FCC8
:10075F00751401758251120BEA901880E0F512752D
:10076F00820412067D7515807516187513FD7514A4
:10077F0001758251120BEA901880E0F5127582050F
:10078F0012067D7515807516187513FE7514017593
:10079F008251120BEA901880E0F51275820612064C
:1007AF007D7515807516187513FF751401758251B7
:1007BF00120BEA901880E0F51275820702067D226F
:1007CF0022222290E6007412F090E60174E0F0907D
:1007DF00E6F574FFF090E670E4F0F5B2F58090E680
:1007EF0071F0F5B4F5A090E672F075B63CF5B12254
:1007FF00E582FF30E00543B1108007AEB174EF5EC4
:10080F00F5B1EF30E10543B1088007AEB174F75E83
:10081F00F5B1EF30E40543B1048007AEB174FB5E70
:10082F00F5B1EF30E50443B12022AFB174DF5FF5CE
:10083F00B1221207FF740155B1FF74024FF58222E6
:10084F00E582FFFE30E00543B1048007AFB174FBD2
:10085F005FF5B143B110EEC313FEAFB174EF5FF5A7
:10086F00B1EE30E00543B1048007AFB174FB5FF523
:10087F00B143B110EEC313FEAFB174EF5FF5B1EE3C
:10088F0030E00543B1048007AFB174FB5FF5B143AE
:10089F00B110EEC313FEAFB174EF5FF5B1EE30E000
:1008AF000543B1048007AFB174FB5FF5B143B110DD
:1008BF00EEC313FEAFB174EF5FF5B1EE30E0054359
:1008CF00B1048007AFB174FB5FF5B143B110EEC354
:1008DF0013FEAFB174EF5FF5B1EE30E00543B10435
:1008EF008007AFB174FB5FF5B143B110EEC313FED8
:1008FF00AFB174EF5FF5B1EE30E00543B10480079F
:10090F00AFB174FB5FF5B143B110EEC313FEAFB1DE
:10091F0074EF5FF5B1EE30E00543B1048007AFB17E
:10092F0074FB5FF5B143B110AFB174EF5FF5B12256
:10093F00AF828F06740155B1035480FDEF30E0058F
:10094F0043B1048007AFB174FB5FF5B143B110EE53
:10095F00C3134DFEAFB174EF5FF5B1740155B1FF25
:10096F00035480FDEE30E00543B1048007AFB1744E
:10097F00FB5FF5B143B110EEC3134DFEAFB174EF92
:10098F005FF5B1740155B1FF035480FDEE30E00502
:10099F0043B1048007AFB174FB5FF5B143B110EE03
:1009AF00C3134DFEAFB174EF5FF5B1740155B1FFD5
:1009BF00035480FDEE30E00543B1048007AFB174FE
:1009CF00FB5FF5B143B110EEC3134DFEAFB174EF42
:1009DF005FF5B1740155B1FF035480FDEE30E005B2
:1009EF0043B1048007AFB174FB5FF5B143B110EEB3
:1009FF00C3134DFEAFB174EF5FF5B1740155B1FF85
:100A0F00035480FDEE30E00543B1048007AFB174AD
:100A1F00FB5FF5B143B110EEC3134DFEAFB174EFF1
:100A2F005FF5B1740155B1FF035480FDEE30E00561
:100A3F0043B1048007AFB174FB5FF5B143B110EE62
:100A4F00C3134DFEAFB174EF5FF5B1740155B1FF34
:100A5F00035480FDEE30E00543B1048007AFB1745D
:100A6F00FB5FF5B143B110EEC3134DFEAFB174EFA1
:100A7F005FF5B18E82227882E84400600C79019094
:100A8F001800E4F0A3D8FCD9FAD083D082F6D8FDB1
:100A9F00C082C08375820022AF82E519700475820F
:100AAF00012290E678E0FE20E6F890E6787480F078
:100ABF00EF2FFF90E67974014FF090E678E0FF306A
:100ACF00E0F890E678E0FF30E203020B6090E67802
:100ADF00E0FF20E103020B607401B5190990E6787D
:100AEF00E0FF74204FF090E679E0F51AAE17AF18DB
:100AFF00AD191DED603190E678E0FC30E0F890E63E
:100B0F0078E0FC20E24BBD010990E678E0FC742010
:100B1F004CF090E679E0FC8E828F83F0A3AE82AF2B
:100B2F00838E178F1880CB90E678E0FF30E0F89037
:100B3F00E678E0FF20E21A90E678E0FF74404FF08D
:100B4F00AE17AF1890E679E08E828F83F075820131
:100B5F002290E678E0FF74404FF075820022AF825A
:100B6F0090E678E0FE20E6F890E6787480F0EF2FBC
:100B7F00FF90E679F090E678E0FF30E0F890E678C5
:100B8F00E0FF20E24990E678E0FF30E141AE17AF99
:100B9F0018AD19ED602B8E828F83E0FCA3AE82AF70
:100BAF008390E679ECF01D90E678E0FC30E0F89069
:100BBF00E678E0FC20E21790E678E0FC20E1D480B4
:100BCF000D90E678E0FF74404FF07582012290E6B9
:100BDF0078E0FF74404FF075820022AF8290188149
:100BEF00E513F07517817518187519018F82C007F5
:100BFF00120B6DE582D0077003F5822285151785DC
:100C0F0016188514198F82120AA7E5827003F582D0
:100C1F00227582012290E6A0E0FF74014FF022AF0F
:100C2F008274805FC423541FFE740F5F90E6834E5F
:100C3F00F0E0FF74204FF02290E680E0FF740A4F3F
:100C4F00F09000FA12128C90E65D74FFF090E65F60
:100C5F00F0AF9174EF5FF59190E680E0FF74F75F6E
:020C6F00F02271
:0612C200E478FFF6D8FD00
:0612A90075220075230010
:100C710090E680E0FF30E7197524007525E17526BF
:100C8100127527E175281C7529E1752A58752BE124
:100C91002275243C7525E175264E7527E175285886
:100CA1007529E1752A1C752BE122C0E0C007C0D06F
:100CB10075D000AF9174EF5FF59175A100D203D0AB
:100CC100D0D007D0E032C021C0E0C0F0C082C083E4
:100CD100C007C006C005C004C003C002C001C000F7
:100CE100C0D075D000AF9174EF5FF59175A100127E
:100CF1000C71D0D0D000D001D002D003D004D005E7
:100D0100D006D007D083D082D0F0D0E0D02132C03D
:100D110021C0E0C0F0C082C083C007C006C005C0CA
:100D210004C003C002C001C000C0D075D000AF91A3
:100D310074EF5FF59175A100120C71D0D0D000D085
:100D410001D002D003D004D005D006D007D083D083
:100D510082D0F0D0E0D02132120C717517AB75182A
:100D61000C7582001211217517C775180C75821048
:100D710012112175171075180D7582141211219019
:100D8100E65C7431F022AF828F06747F5EFF24F738
:100D9100500475820022BF010475820122530701AC
:100DA100E4BF000104F58222AF82BF010C90E6A1ED
:100DB100E0FE7D008E828D8322BF810C90E6A2E051
:100DC100FE7D008E828D83228F06747F5EFF700C04
:100DD10090E6A0E0FE7D008E828D832290E6A3E066
:100DE100FE7D00EFC3137C002EFEEC3D8E82F58369
:100DF10022C20390E6B57401F090E6B8E0FF530714
:100E0100608F06BE00028028BF2002800DBF400215
:100E1100800EBF600280030210B5120C240210B5CF
:100E2100120406E58260030210B5120C240210B50B
:100E310090E6B8E0FF530780BF80028003020FB93C
:100E410090E6B9E0FFBF0003020F30BF0602803316
:100E5100BF08028008BF0A028016020FB390E74064
:100E6100E522F090E68AE4F090E68B04F00210B5FA
:100E710090E740E523F090E68AE4F090E68B04F0F9
:100E81000210B590E6BBE0FFBF01028017BF02026E
:100E91008038BF03028059BF0602801BBF07028052
:100EA1003C020F2AAE24AF2590E6B3EFF07F00900D
:100EB100E6B4EEF00210B5AE26AF2790E6B3EFF040
:100EC1007F0090E6B4EEF00210B5AE28AF2990E6AF
:100ED100B3EFF07F0090E6B4EEF00210B5AE2AAFAA
:100EE1002B90E6B3EFF07F0090E6B4EEF00210B580
:100EF10090E6BAE0FF90E178E0FEC3EF9E40061273
:100F01000C240210B590E6BAE075F002A42479F53C
:100F11008274E135F0F583E0FEA3E090E6B3F07F63
:100F21000090E6B4EEF00210B5120C240210B59058
:100F3100E6B8E0FF53071F8F06BE0002800ABE011C
:100F410002801BBF0266802C90E740E4F090E741ED
:100F5100F090E68AF090E68B7402F00210B590E70B
:100F610040E4F090E741F090E68AF090E68B74025D
:100F7100F00210B590E6BCE0F582120D87E58260C3
:100F81002590E6BCE0F582120DA9E0FF5307019020
:100F9100E740EFF090E741E4F090E68AF090E68BCD
:100FA1007402F00210B5120C240210B5120C2402C6
:100FB10010B5120C240210B590E6B9E0FF24F450EC
:100FC100030210B2EF240A83F582EF241083F58324
:100FD100E473B2FD7A5BB2B2B2B2B2EBB2F4100F0B
:100FE100101010101010100F100F90E6BAE0F5223B
:100FF1000210B590E6BAE0F5230210B590E6B8E02C
:10100100FF53071F8F06BE00028005BF0247800AFB
:1010110090E6BAE0120C240210B590E6BAE0703006
:1010210090E6BCE0F582120D87E582602390E6BC74
:10103100E0F582120DA9AE82AF83E0FD5305FE8E6D
:10104100828F83EDF090E6BCE0F582120C2E806475
:10105100120C24805F120C24805A90E6B8E0FF53F2
:10106100071FBF004F90E6BAE0FFBF01028005BF36
:1010710002028040120C24803B90E6BAE0FF702C03
:1010810090E6BCE0F582120D87E582601A90E6BC1D
:10109100E0F582120DA9AE82AF83E0FD4305018E1A
:1010A100828F83EDF0800D120C248008120C2480B5
:1010B10003120C2490E6A0E0FF74804FF022AF826F
:1010C100BF03004005EF249C500122740F5FFEBE58
:1010D10003028007740F5FFEBE0B44A2AF9204C2ED
:1010E100AFEF2400F582E43400F5837402F07E0052
:1010F100142FFCE43EFDEC2400F582ED3400F58371
:10110100E518FDF074022FFFE43EFEEF2400F582A6
:10111100EE3400F583AE177F00EEF0A20492AF2209
:10112100E582FF2483500122EF5403600122A2AF24
:101131009205C2AFEF2400F582E43401F583740215
:10114100F07E00142FFCE43EFDEC2400F582ED342A
:1011510001F583E518F074022FFFE43EFEEF240051
:10116100F582EE3401F583AE17EEF0A20592AF22BF
:10117100AF82BF80004005EF244B500122EF5403A2
:10118100600122A2AF9206C2AFEF2480F582E4345F
:1011910000F5837402F07E00142FFCE43EFDEC2484
:1011A10080F582ED3400F583E518F074022FFFE439
:1011B1003EFEEF2480F582EE3400F583AE17EEF0AB
:1011C100A20692AF22C2E8C2EA751700751801752E
:1011D10082431210BF751780751800758253121063
:1011E100BF0090E650E4F00090E652E4F00090E693
:1011F10054E4F00090E656E4F00090E65174FFF0FC
:101201000090E65374FFF00090E65574FFF00090F3
:10121100E65774FFF00090E658E4F090E65914F0B8
:1012210090E65AE4F090E65B14F090E65CE4F0900E
:10123100E65D14F090E65EE4F090E65F14F0009055
:10124100E660E4F00090E66174FFF090E662E4F09D
:1012510090E66314F090E665E4F090E668740BF0B4
:10126100AF9174EF5FF591AF9174BF5FF591D2E8E3
:10127100D2EA2222AF82121274EF14FEFF70F7221B
:1012810090FB50A3E582458370F922AE82AF8312B1
:101291001281EE24FFFCEF34FFFD8C068D07EC4D2F
:0312A10070ED22CB
:0D12B50075812B120A85E58260030212B2DA
:00000001FF
