:040000000201B9320E
:01000B0032C2
:0100130032BA
:01001B0032B2
:030023000202AA2C
:01002B0032A2
:01003300329A
:01003B003292
:01004300328A
:01004B003282
:01005300327A
:01005B003272
:01006300326A
:03006B0002068208
:030073000206A9D9
:03007B000208EF89
:030083000210F96F
:03008B000206CAA0
:0300930002071948
:03009B000208EC6C
:0300A30002112522
:0300AB0002112619
:0300B30002112710
:0300BB0002112A05
:0300C3000210FB2D
:0300CB0002111708
:0300D300021118FF
:0300DB0002111AF5
:0300E300020CDC30
:0300EB000212FC02
:0300F3000208ED13
:0300FB000208EE0A
:03010300020CDB10
:03010B00020CDD06
:03011300020CDEFD
:03011B000212715C
:03012300021123A3
:03012B0002112896
:0301330002112B8B
:03013B0002121895
:0301430002112482
:03014B0002112975
:0301530002112C6A
:03015B0002121974
:0301630002127015
:03016B0002111B63
:0301730002111D59
:03017B0002111F4F
:0301830002112145
:03018B0002111C42
:0301930002111E38
:03019B000211202E
:0301A30002112224
:0301AB0002111925
:0301B3000210FA3D
:03023E000201B604
:0301B600020391B0
:20024100AC82AD83AEF0FFC3E49C74C29D74019EE49F400EEC9460ED9409EE9400EF940039
:2002610050087C007DC27E017F008C828D838EF0EF12112D75820122AD82AE83AFF07B00FD
:200281007C00C3EB955FEC9560501DEB2DF8EC3EF98F02888289838AF0121272F5992099C0
:2002A100FD0BBB00DD0C80DA22C0E0C082C083C007C006C0D075D000D310AF01C3C0D01098
:2002C1009802803DE5AA20E519AE22AF2374012522F522E43523F5238E8274F82FF583E548
:2002E10099F0AF2390E698EFF000000000AE22E5237F0090E699EEF000000000E4F522F581
:20030100231099028000D0D092AFD0D0D006D007D083D082D0E032E582FF24F05004758214
:200321003F22EF24F650088F0674572EF5822274302FF58222E58275F004A4FFAEF024BC76
:20034100FCEE343EFDE518C4540FF582C007C006C005C004120318AB82D004D005D006D0E9
:20036100078C828D83EBF074022FFFE43EFEEF24BCFFEE343EFE740F5518F582C007C00698
:20038100120318AD82D006D0078F828E83EDF02275190090E60BE4F0C202E4F513F514F5A1
:2003A10015F516C201751200C200E4F510F51190E680E0440AF09005DC12121A90E680E088
:2003C10054F7F090E600E0FF74E75F90E6004410F090E601E04440F0E500D2E890E668E0F0
:2003E1004408F090E65CE04401F090E65CE04402F090E65CE04420F090E65CE04410F09065
:200401003EBC7466F0755319755400755540754FF8755000755101755200758251120C7678
:20042100851918758200120336755319755400755540754FF9755000755101755200758208
:2004410051120C76851918758201120336755319755400755540754FFA755000755101754A
:200461005200758251120C76851918758202120336755319755400755540754FFB7550001B
:20048100755101755200758251120C76851918758203120336755319755400755540754F7E
:2004A100FC755000755101755200758251120C7685191875820412033675531975540075F5
:2004C1005540754FFD755000755101755200758251120C76851918758205120336755319B8
:2004E100755400755540754FFE755000755101755200758251120C7685191875820612036F
:2005010036755319755400755540754FFF755000755101755200758251120C7685191875D3
:20052100820712033690E61274A2F00000000090E61474E2F00000000090E611E0FF547F4F
:20054100F00000000090E610E0FF547FF00000000090E613E0FF547FF00000000090E615CC
:20056100E0FF547FF00000000090E6917480F00000000090E6917480F0D2ACC2BCD299C2D9
:2005810098D2AF300105120CDFC20112076880F375820022AF82C007120791E582D00760FE
:2005A1000475820122BFB12990E6BAE0F582120E01AE82AF83EE4F60188E828F83E090E74B
:2005C10040F090E68AE4F090E68B7401F07582012275820022E582FF7014AD5FAE60AF6169
:2005E1008D828E838FF0E41210FC7582012275820022E582FF7074E55F707090E683740249
:20060100F0E0FF90E68374204FF090E6837416F0E0FF90E68374204FF090E6047480F000C2
:2006210000000090E6047482F00000000090E604E4F00000000090E6917480F00000000020
:2006410090E6917480F00000000090E6047480F00000000090E6047486F00000000090E676
:2006610004E4F000000000758201227582002275820122AF82BF01047F0180027F008F82CD
:2006810022C0E0C082C083C007C0D075D000D201AF9174EF5FF59190E65D7401F0D0D0D073
:2006A10007D083D082D0E032C0E0C082C083C0D075D008AF9174EF5FF59190E65D7402F0E8
:2006C100D0D0D083D082D0E032C021C0E0C0F0C082C083C007C006C005C004C003C002C0E1
:2006E10001C000C0D075D000758200120FE9AF9174EF5FF59190E65D7410F0D0D0D000D053
:2007010001D002D003D004D005D006D007D083D082D0F0D0E0D02132C021C0E0C0F0C08231
:20072100C083C007C006C005C004C003C002C001C000C0D075D000758201120FE9AF9174CE
:20074100EF5FF59190E65D7420F0D0D0D000D001D002D003D004D005D006D007D083D0828C
:07076100D0F0D0E0D02132FE
:1A021200E4F522F523752460752509752600752700752800752900752A080A
:20076800E5AA20E02390E690E0FE7F0090E691E07C004FF55FEC4EF56090F00075F00012D0
:20078800027990E6917480F022AF827E248E2B752C00752D40BF2002800FBF2103020885D8
:2007A800BF22030208E40208E8C2E890E6B57401F090E68BE4F090E6B5F0D2E890E68BE0A8
:2007C800FFBF07F8000000007B007F00EB252BF8EF352CF9AA2DEB2440F582EF34E7F583BF
:2007E800E0FE888289838AF01210FC0BBB00010FC3EB9407EF6480948040D17403252BFD8A
:20080800E4352CFEAF2D8D828E838FF0121272FF7D007402252BFBE4352CFCAE2D8B828C8A
:20082800838EF01212727E004205EE42078F048D06E4FFFD7401252BF9E4352CFAAB2D89B9
:20084800828A838BF0121272FB7900852B82852C83852DF01212727A004201EA42038B0067
:20086800E4FAFBE94205E84207EA4206EB42048D828F838EF0EC1202417582012290E6B5AE
:200888007401F07E007F00EE2440FCEF34E7FDEE252BF9EF352CFAAB2D89828A838BF0129B
:2008A8001272F98C828D83F00EBE00010FC3EE9407EF6480948040CF90E68AE4F0000000B3
:2008C8000090E68B7407F00000000090E6A0E0FF20E1F890E6B5E4F0758201227582012283
:0408E80075820022F3
:203E00001201000202000040B40404100100010203010A060002FFFFFF40010009024300D9
:203E20000201008032090400000102020100052400100104240200052406000105240101FB
:1F3E4000010705810340004009040100020A000000070502020002000705860200020090
:203E6000090243000201008032090400000202020103052400100104240200052406000194
:203E800005240101010705810340004009040100020A0000000705020240000007058602E8
:033EA000400000DF
:203EA400040309040603480069000C0354006800650072006500220330003100320033003E
:1A3EC400340035003600370038003900610062006300640065006600000048
:0108EC0032D9
:0108ED0032D8
:0108EE0032D7
:0108EF0032D6
:2008F000AF82E533252EF538E534352FF539903C00E4F0EF2FFF753A02903C00E0FB6004FB
:200910007582002290E678E04480F090E678E0FB30E20C90000AC00712121AD00780DA90E5
:20093000E679EFF090E678E0FB20E007903C00E0FB60F1903C00E0FB60047582002290E607
:2009500078E0FB20E2B390E678E0FB20E13690E678E0FB4440F090E678E0FB30E607903C90
:2009700000E0FB60F1903C00E0FB600475820022D53A047582002290000AC00712121AD07C
:20099000070209097A007B00C3EA9538EB95394003020A35C3EA952EEB952F5016EA2530BC
:2009B000F8EB3531F9AC32888289838CF0121272FC801DEAC3952EF8EB952FF9E82535F8FC
:2009D000E93536F9AE37888289838EF0121272FC90E679ECF00ABA00010B90E678E0FE2028
:2009F000E007903C00E0FE60F1903C00E0FE60047582002290E678E0FE30E2030209099059
:200A1000E678E0FE30E10302099890E678E0FF4440F090E678E0FF30E607903C00E0FF609D
:200A3000F17582002290E678E0FF4440F090E678E0FF30E607903C00E0FF60F1903C00E0C9
:200A5000FF60047582002275820122AF82903C00E4F0EF2FFF4307017401B53B08E4B53C75
:200A70000474018001E4FE903C00E0FD6004758200227C007D0090E678E04480F090E678FB
:200A9000E0FB30E21090000AC007C00612121AD006D00780D290E679EFF090E678E0FB202E
:200AB000E007903C00E0FB60F1903C00E0FB60047582002290E678E0FB20E2AB90E678E0DF
:200AD000FB20E11B90E678E0FB4440F090E678E0FB30E607903C00E0FB60F175820022EECD
:200AF000600890E678E0FB4420F090E679E0E4F540F54174012540F8E43541F9C3E8953BA3
:200B1000E9953C506990E678E0F920E007903C00E0F960F1903C00E0F960047582002290DC
:200B3000E678E0F930E203020A7774022540F8E43541F9E8B53B0CE9B53C0890E678E0F923
:200B50004420F0A840A9410540E4B540020541AC40AD41E8253DF8E9353EF9AB3F90E679AF
:200B7000E0FA888289838BF01210FC020B0390E678E0FB20E007903C00E0FB60F1903C0038
:200B9000E0FB60047582002290E678E0FB30E203020A7790E678E04440F0EC253DFCED35DE
:200BB0003EFDAF3F90E679E0FE8C828D838FF01210FC90E678E0FF30E607903C00E0FF607F
:200BD000F1903C00E0FF60047582002275820122858249E4F54DF54EAB42AC43C3E54D95B3
:200BF00044E54E95454003020C727A0090E678E0FF30E4067A018C078F4A8A070AEF244A91
:200C1000F98B06A7068A070AEF244AF9AE4DAF4E054DE4B54D02054EEE2546FEEF3547FF56
:200C3000AD488E828F838DF0121272F78A2E752F0075304A753100753240E4F533F534F581
:200C500035F536F537854982C004C0031208F0E582D003D0047003F582220BBB00010C0228
:200C70000BEC75820122AF827E0090E678E0FD30E4067E01AD508D568E050EED2456F9ACB3
:200C90004FA7048E2E752F00753056753100753240E4F533F534F535F536F5378F82C007D4
:200CB0001208F0E582D0077003F5822285513B85523C85533D85543E85553F8F82120A5BDF
:0B0CD000E5827003F58222758201228C
:010CDB0032E6
:010CDC0032E5
:010CDD0032E4
:010CDE0032E3
:0601E800E478FFF6D8FDEB
:12022C00755900755A00755B60755C3E755D1C755E3EE5
:200CDF0090E6B9E0FF24F45003020DE4EF240A83F582EF241083F583E4731126E43BE4E4DF
:200CFF0050E4607892C60D0D0D0D0D0D0D0D0D0D0D0D120E5BE5826003020DF990E6A0E092
:200D1F00FF4401F0020DF9120EE4E5826003020DF990E6A0E0FF4401F0020DF9120F5CE50E
:200D3F00826003020DF990E6A0E0FF4401F0020DF9120591E5826003020DF9121014020DB6
:200D5F00F9120670AF8290E740EFF090E68AE4F090E68B7401F0020DF990E6BAE0F5821251
:200D7F000674E5826003020DF990E6A0E0FF4401F0806790E6BCE0FF755F5875600075610F
:200D9F00408F821205D6E582700A90E6A0E0FF4401F0804690E740E558F090E68AE4F090DD
:200DBF00E68B7401F0803390E6BCE0FF90E6BAE0F55F8F821205F3E582701F90E6A0E0FF10
:200DDF004401F0801590E6B9E0F582120595E582700890E6A0E0FF4401F090E6A0E0448035
:200DFF00F022AF828F0653067FEE24F75003020E57EE240A83F582EE240D83F583E47330AA
:200E1F003447574B574F57530E0E0E0E0E0E0E0E0E90E6A022EF30E7067EA27FE680047EFD
:200E3F00A17FE68E828F832290E6A32290E6A42290E6A52290E6A6229000002290E6B8E097
:200E5F00FFBF8002801FBF81028005BF826F803490E740E4F090E741F090E68AF090E68B45
:200E7F007402F0805CE55A25E0FFE559420790E740EFF090E741E4F090E68AF090E68B74C0
:200E9F0002F0803D90E6BCE0F582120E01AE82AF83EE4F7003F582228E828F83E0FE30E01F
:200EBF00047F0180027F0090E740EFF090E741E4F090E68AF090E68B7402F080047582009A
:200EDF00227582012290E6B8E0FF6005BF0261801B90E6BAE0FFBF0105755A00805B90E694
:200EFF00BAE0FFBF060280517582002290E6BAE0703A90E6BCE0F582120E01AE82AF83E0E3
:200F1F00FD5305FE8E828F83EDF090E6BCE0FF53070F90E6BCE05480C423541FFE90E683AF
:200F3F002FF090E683E0FF4420F0800D7582002290E6B9E0F5820205957582012290E6B837
:200F5F00E0FF6005BF0276802590E6BAE0FFBF0202807390E6BAE0FFBF0105755A01806603
:200F7F0090E6BAE0FFBF0602805C7582002290E6BAE0704590E6BCE0F582120E01AE82AF39
:200F9F0083EE4F7003F582228E828F83E0FD4305018E828F83EDF090E6BCE0FF53070F9015
:200FBF00E6BCE05480C423541FFE90E6832FF090E683E0FF4420F0800D7582002290E6B94B
:200FDF00E0F58202059575820122AF82D20310AF02C203EF600E755B1C755C3E755D60755A
:200FFF005E3E800C755B60755C3E755D1C755E3EA20392AF2290E6BBE0FFBF01028019BF3A
:20101F0002028029BF03028033BF06030210CDBF07030210E20210F17E007F3E8F0690E6E0
:20103F00B3EEF07E007F3E90E6B4EEF022AF5C90E6B3EFF0AE5B90E6B4EEF0227EA47D3E78
:20105F007F8090E6BAE0F55F7B008B020BEAB55F0280428E008D018F028E828D838FF012DB
:20107F00127228F8E439F9880689058A0774012EF9E43DFA8F0489828A838CF0121272F97D
:20109F00B9030280067E007D007F00EE4D6006C3E55F9B50B5EE4D600D8D0790E6B3EFF0E7
:2010BF0090E6B4EEF02290E6A0E04401F0227E127F3E8F0690E6B3EEF07E127F3E90E6B43A
:1A10DF00EEF022AF5E90E6B3EFF0AE5D90E6B4EEF02290E6A0E04401F02260
:2001C6007900E94400601B7A00901366780175923CE493F2A308B800020592D9F4DAF27546
:0201E60092FF86
:0110F90032C4
:0110FA0032C3
:0110FB0032C2
:1B10FC0020F71130F6138883A88220F509F6A8837583002280FEF280F5F022F3
:0111170032A5
:0111180032A4
:0111190032A3
:01111A0032A2
:03004300023F0079
:203F0000020682000206A9000208EF000210F9000206CA00020719000208EC000211240041
:203F200002112500021126000211270002112A000210FB00021117000211180002111A000A
:203F4000020CDC00021124000212FC000208ED000208EE00020CDB00020CDD00020CDE0081
:203F600002127100021124000211240002112400021123000211280002112B00021218003C
:203F80000211290002112C00021219000212700002111B0002111D0002111F000211210031
:183FA00002111C0002111E000211200002112200021119000210FA0009
:01111B0032A1
:01111C0032A0
:2001EE007800E84400600A790075923CE4F309D8FC7801E84400600C7901903C00E4F0A3A5
:04020E00D8FCD9FA45
:01111D00329F
:01111E00329E
:01111F00329D
:01112000329C
:01112100329B
:01112200329A
:011123003299
:011124003298
:011125003297
:011126003296
:011127003295
:011128003294
:011129003293
:01112A003292
:01112B003291
:01112C003290
:20112D00D310AF01C3C0D085821A85831B85F01CF51D90E600E05418C423541FFBB4010009
:20114D00E433FB60047B01801690E600E05418C423541FFABA01047A0280027A048A03D24A
:20116D00CDD2CC8B5F7560007561007562009071B075F00BE4C00312128E851A5F851B6013
:20118D00851C61851D621212FDA882A983AAF0FFD00308B8000909B900050ABA00010FEF06
:2011AD00C313EA13FAE913F9E813F874FFC398F874FF99FF8FCB7900EB60027401FFEF28F1
:2011CD00F5CAD2CAC29FD29EC29DD29C438780D299D0D092AF223098FD859982C29822AFC1
:2011ED008210990280FB8F9922AF82BF0A0A75820DC0071211ECD0078F82C0071211ECD084
:0B120D0007BF0D0675820A0211EC22DB
:0112180032A3
:0112190032A2
:20121A00AE82AF8390E600E05418C423541FFDB40100E433FD60067CB17D00801C90E6004E
:20123A00E05418C423541FFBBB01067A617B0180047AC27B028A048B058C5F8D60155F74BF
:16125A00FFB55F021560E55F456070F11EBEFF011FEE4F70E422FC
:01127000324B
:01127100324A
:0D01B900758162121362E58260030201B6D7
:1C12720020F71430F6148883A88220F507E6A88375830022E280F7E49322E0228B
:20128E00AAF0FBE582855FF0A4FCADF0E583855FF0A42DFDE435F0FEE5828560F0A42DFD18
:2012AE00E5F03EFEE433FFEA855FF0A42EFEE5F03FFFE5838560F0A42EFEE5F03FFFE582D1
:2012CE008561F0A42EFEE5F03FFFEB855FF0A42FFFEA8560F0A42FFFE5838561F0A42FFF15
:0E12EE00E5828562F0A42F8EF08D838C822223
:0112FC0032BF
:2012FD00FB7A20E4FCFDFEFFE5822582F582E58333F583E5F033F5F0EB33FB4017DAE9802A
:20131D0042E5822582F582E58333F583E5F033F5F0EB33FBEC33FCED33FDEE33FEEF33FF58
:20133D00EC955FED9560EE9561EF95624013EC955FFCED9560FDEE9561FEEF9562FF43826A
:05135D0001DABEEB22E5
:04136200758200226E
:00000001FF
